{
  "contracts/lottery.sol": {
    "lottery": {
      "abi": [
        {
          "inputs": [],
          "stateMutability": "nonpayable",
          "type": "constructor"
        },
        {
          "anonymous": false,
          "inputs": [
            {
              "indexed": true,
              "internalType": "address",
              "name": "poolOwner",
              "type": "address"
            },
            {
              "indexed": false,
              "internalType": "uint256",
              "name": "poolId",
              "type": "uint256"
            },
            {
              "indexed": false,
              "internalType": "string",
              "name": "poolName",
              "type": "string"
            },
            {
              "indexed": false,
              "internalType": "uint256",
              "name": "joiningFee",
              "type": "uint256"
            }
          ],
          "name": "LogLotteryPoolCreated",
          "type": "event"
        },
        {
          "anonymous": false,
          "inputs": [
            {
              "indexed": false,
              "internalType": "uint256",
              "name": "poolId",
              "type": "uint256"
            },
            {
              "indexed": false,
              "internalType": "string",
              "name": "poolName",
              "type": "string"
            },
            {
              "indexed": false,
              "internalType": "uint256",
              "name": "joiningFee",
              "type": "uint256"
            },
            {
              "indexed": false,
              "internalType": "uint256",
              "name": "poolAmount",
              "type": "uint256"
            },
            {
              "indexed": false,
              "internalType": "uint256",
              "name": "availableSlots",
              "type": "uint256"
            },
            {
              "indexed": false,
              "internalType": "address[]",
              "name": "members",
              "type": "address[]"
            }
          ],
          "name": "LogLotteryPoolJoined",
          "type": "event"
        },
        {
          "anonymous": false,
          "inputs": [
            {
              "indexed": false,
              "internalType": "uint256",
              "name": "poolId",
              "type": "uint256"
            },
            {
              "indexed": false,
              "internalType": "string",
              "name": "poolName",
              "type": "string"
            },
            {
              "indexed": false,
              "internalType": "uint256",
              "name": "joiningFee",
              "type": "uint256"
            },
            {
              "indexed": false,
              "internalType": "uint256",
              "name": "poolAmount",
              "type": "uint256"
            },
            {
              "indexed": false,
              "internalType": "address[]",
              "name": "members",
              "type": "address[]"
            },
            {
              "indexed": true,
              "internalType": "address",
              "name": "winner",
              "type": "address"
            }
          ],
          "name": "LogLotteryPoolWinned",
          "type": "event"
        },
        {
          "inputs": [
            {
              "internalType": "string",
              "name": "_poolName",
              "type": "string"
            },
            {
              "internalType": "uint256",
              "name": "_availableSlots",
              "type": "uint256"
            },
            {
              "internalType": "uint256",
              "name": "_joiningFee",
              "type": "uint256"
            }
          ],
          "name": "createLotteryPool",
          "outputs": [],
          "stateMutability": "payable",
          "type": "function"
        },
        {
          "inputs": [
            {
              "internalType": "uint256",
              "name": "",
              "type": "uint256"
            }
          ],
          "name": "createdPools",
          "outputs": [
            {
              "internalType": "uint256",
              "name": "",
              "type": "uint256"
            }
          ],
          "stateMutability": "view",
          "type": "function"
        },
        {
          "inputs": [
            {
              "internalType": "uint256",
              "name": "_poolId",
              "type": "uint256"
            }
          ],
          "name": "drawWinner",
          "outputs": [],
          "stateMutability": "payable",
          "type": "function"
        },
        {
          "inputs": [],
          "name": "getAllcreatedPools",
          "outputs": [
            {
              "internalType": "uint256[]",
              "name": "",
              "type": "uint256[]"
            }
          ],
          "stateMutability": "view",
          "type": "function"
        },
        {
          "inputs": [
            {
              "internalType": "uint256",
              "name": "_poolId",
              "type": "uint256"
            }
          ],
          "name": "getLotteryPoolById",
          "outputs": [
            {
              "components": [
                {
                  "internalType": "string",
                  "name": "poolName",
                  "type": "string"
                },
                {
                  "internalType": "uint256",
                  "name": "poolId",
                  "type": "uint256"
                },
                {
                  "internalType": "address[]",
                  "name": "members",
                  "type": "address[]"
                },
                {
                  "internalType": "uint256",
                  "name": "availableSlots",
                  "type": "uint256"
                },
                {
                  "internalType": "uint256",
                  "name": "joiningFee",
                  "type": "uint256"
                },
                {
                  "internalType": "uint256",
                  "name": "poolAmount",
                  "type": "uint256"
                },
                {
                  "internalType": "address",
                  "name": "poolOwner",
                  "type": "address"
                },
                {
                  "internalType": "address",
                  "name": "winner",
                  "type": "address"
                },
                {
                  "internalType": "bool",
                  "name": "isActive",
                  "type": "bool"
                },
                {
                  "internalType": "bool",
                  "name": "isExists",
                  "type": "bool"
                }
              ],
              "internalType": "struct lottery.LotteryPool",
              "name": "",
              "type": "tuple"
            }
          ],
          "stateMutability": "view",
          "type": "function"
        },
        {
          "inputs": [
            {
              "internalType": "uint256",
              "name": "_poolId",
              "type": "uint256"
            }
          ],
          "name": "getLotteryPoolMemeberById",
          "outputs": [
            {
              "components": [
                {
                  "internalType": "bool",
                  "name": "isJoined",
                  "type": "bool"
                },
                {
                  "internalType": "uint256[]",
                  "name": "joinedPools",
                  "type": "uint256[]"
                },
                {
                  "internalType": "uint256[]",
                  "name": "winnedPools",
                  "type": "uint256[]"
                }
              ],
              "internalType": "struct lottery.LotteryPoolMembers",
              "name": "",
              "type": "tuple"
            }
          ],
          "stateMutability": "view",
          "type": "function"
        },
        {
          "inputs": [
            {
              "internalType": "uint256",
              "name": "_poolId",
              "type": "uint256"
            }
          ],
          "name": "joinLotteryPool",
          "outputs": [],
          "stateMutability": "payable",
          "type": "function"
        },
        {
          "inputs": [
            {
              "internalType": "address",
              "name": "",
              "type": "address"
            },
            {
              "internalType": "uint256",
              "name": "",
              "type": "uint256"
            }
          ],
          "name": "lotteryPoolMembers",
          "outputs": [
            {
              "internalType": "bool",
              "name": "isJoined",
              "type": "bool"
            }
          ],
          "stateMutability": "view",
          "type": "function"
        },
        {
          "inputs": [
            {
              "internalType": "uint256",
              "name": "",
              "type": "uint256"
            }
          ],
          "name": "lotteryPools",
          "outputs": [
            {
              "internalType": "string",
              "name": "poolName",
              "type": "string"
            },
            {
              "internalType": "uint256",
              "name": "poolId",
              "type": "uint256"
            },
            {
              "internalType": "uint256",
              "name": "availableSlots",
              "type": "uint256"
            },
            {
              "internalType": "uint256",
              "name": "joiningFee",
              "type": "uint256"
            },
            {
              "internalType": "uint256",
              "name": "poolAmount",
              "type": "uint256"
            },
            {
              "internalType": "address",
              "name": "poolOwner",
              "type": "address"
            },
            {
              "internalType": "address",
              "name": "winner",
              "type": "address"
            },
            {
              "internalType": "bool",
              "name": "isActive",
              "type": "bool"
            },
            {
              "internalType": "bool",
              "name": "isExists",
              "type": "bool"
            }
          ],
          "stateMutability": "view",
          "type": "function"
        },
        {
          "inputs": [],
          "name": "owner",
          "outputs": [
            {
              "internalType": "address payable",
              "name": "",
              "type": "address"
            }
          ],
          "stateMutability": "view",
          "type": "function"
        }
      ],
      "evm": {
        "bytecode": {
          "linkReferences": {},
          "object": "608060405234801561001057600080fd5b50336000806101000a81548173ffffffffffffffffffffffffffffffffffffffff021916908373ffffffffffffffffffffffffffffffffffffffff160217905550612984806100606000396000f3fe6080604052600436106100915760003560e01c80638e2b27e1116100595780638e2b27e11461017b578063a8a07586146101b8578063c61cbd13146101d4578063d1ff907b14610211578063d26273831461023c57610091565b80634435b17c146100965780634445f30c146100b257806344ed3f58146100ef57806360b2a56a146101345780638da5cb5b14610150575b600080fd5b6100b060048036038101906100ab919061184d565b610279565b005b3480156100be57600080fd5b506100d960048036038101906100d4919061184d565b6106f7565b6040516100e691906120b8565b60405180910390f35b3480156100fb57600080fd5b506101166004803603810190610111919061184d565b61094f565b60405161012b99989796959493929190611ec2565b60405180910390f35b61014e6004803603810190610149919061184d565b610a7f565b005b34801561015c57600080fd5b50610165610fb6565b6040516101729190611e6a565b60405180910390f35b34801561018757600080fd5b506101a2600480360381019061019d91906117aa565b610fda565b6040516101af9190611ea7565b60405180910390f35b6101d260048036038101906101cd91906117e6565b611012565b005b3480156101e057600080fd5b506101fb60048036038101906101f6919061184d565b611394565b6040516102089190612096565b60405180910390f35b34801561021d57600080fd5b506102266114c9565b6040516102339190611e85565b60405180910390f35b34801561024857600080fd5b50610263600480360381019061025e919061184d565b611521565b60405161027091906120da565b60405180910390f35b6002600082815260200190815260200160002060070160159054906101000a900460ff166102dc576040517f08c379a00000000000000000000000000000000000000000000000000000000081526004016102d390611f56565b60405180910390fd5b6002600082815260200190815260200160002060070160149054906101000a900460ff1661033f576040517f08c379a000000000000000000000000000000000000000000000000000000000815260040161033690611fb6565b60405180910390fd5b6000600260008381526020019081526020016000206003015411610398576040517f08c379a000000000000000000000000000000000000000000000000000000000815260040161038f90612056565b60405180910390fd5b346002600083815260200190815260200160002060040154146103f0576040517f08c379a00000000000000000000000000000000000000000000000000000000081526004016103e790612036565b60405180910390fd5b600360003373ffffffffffffffffffffffffffffffffffffffff1673ffffffffffffffffffffffffffffffffffffffff168152602001908152602001600020600082815260200190815260200160002060000160009054906101000a900460ff1615610491576040517f08c379a000000000000000000000000000000000000000000000000000000000815260040161048890611fd6565b60405180910390fd5b60026000828152602001908152602001600020600201339080600181540180825580915050600190039060005260206000200160009091909190916101000a81548173ffffffffffffffffffffffffffffffffffffffff021916908373ffffffffffffffffffffffffffffffffffffffff1602179055503460026000838152602001908152602001600020600501600082825461052e919061235c565b9250508190555060026000828152602001908152602001600020600301600081548092919061055c906124f9565b91905055506001600360003373ffffffffffffffffffffffffffffffffffffffff1673ffffffffffffffffffffffffffffffffffffffff168152602001908152602001600020600083815260200190815260200160002060000160006101000a81548160ff021916908315150217905550600360003373ffffffffffffffffffffffffffffffffffffffff1673ffffffffffffffffffffffffffffffffffffffff16815260200190815260200160002060008281526020019081526020016000206001018190806001815401808255809150506001900390600052602060002001600090919091909150557ff86bdb19f19aa826e176e1d82140ff7093798030e1db52349c0fd748d16f369c8160026000848152602001908152602001600020600001600260008581526020019081526020016000206004015460026000868152602001908152602001600020600501546002600087815260200190815260200160002060030154600260008881526020019081526020016000206002016040516106ec96959493929190612194565b60405180910390a150565b6106ff611545565b600260008381526020019081526020016000206040518061014001604052908160008201805461072e90612523565b80601f016020809104026020016040519081016040528092919081815260200182805461075a90612523565b80156107a75780601f1061077c576101008083540402835291602001916107a7565b820191906000526020600020905b81548152906001019060200180831161078a57829003601f168201915b50505050508152602001600182015481526020016002820180548060200260200160405190810160405280929190818152602001828054801561083f57602002820191906000526020600020905b8160009054906101000a900473ffffffffffffffffffffffffffffffffffffffff1673ffffffffffffffffffffffffffffffffffffffff16815260200190600101908083116107f5575b505050505081526020016003820154815260200160048201548152602001600582015481526020016006820160009054906101000a900473ffffffffffffffffffffffffffffffffffffffff1673ffffffffffffffffffffffffffffffffffffffff1673ffffffffffffffffffffffffffffffffffffffff1681526020016007820160009054906101000a900473ffffffffffffffffffffffffffffffffffffffff1673ffffffffffffffffffffffffffffffffffffffff1673ffffffffffffffffffffffffffffffffffffffff1681526020016007820160149054906101000a900460ff161515151581526020016007820160159054906101000a900460ff1615151515815250509050919050565b600260205280600052604060002060009150905080600001805461097290612523565b80601f016020809104026020016040519081016040528092919081815260200182805461099e90612523565b80156109eb5780601f106109c0576101008083540402835291602001916109eb565b820191906000526020600020905b8154815290600101906020018083116109ce57829003601f168201915b5050505050908060010154908060030154908060040154908060050154908060060160009054906101000a900473ffffffffffffffffffffffffffffffffffffffff16908060070160009054906101000a900473ffffffffffffffffffffffffffffffffffffffff16908060070160149054906101000a900460ff16908060070160159054906101000a900460ff16905089565b60008054906101000a900473ffffffffffffffffffffffffffffffffffffffff1673ffffffffffffffffffffffffffffffffffffffff163373ffffffffffffffffffffffffffffffffffffffff1614610b0d576040517f08c379a0000000000000000000000000000000000000000000000000000000008152600401610b0490612016565b60405180910390fd5b6002600082815260200190815260200160002060070160149054906101000a900460ff16610b70576040517f08c379a0000000000000000000000000000000000000000000000000000000008152600401610b6790612076565b60405180910390fd5b6000600260008381526020019081526020016000206003015414610bc9576040517f08c379a0000000000000000000000000000000000000000000000000000000008152600401610bc090611f76565b60405180910390fd5b60006064600a6002600085815260200190815260200160002060050154610bf091906123e3565b610bfa91906123b2565b905060006064605a6002600086815260200190815260200160002060050154610c2391906123e3565b610c2d91906123b2565b905060008054906101000a900473ffffffffffffffffffffffffffffffffffffffff1673ffffffffffffffffffffffffffffffffffffffff166108fc839081150290604051600060405180830381858888f19350505050158015610c95573d6000803e3d6000fd5b50600044426002600087815260200190815260200160002060020180549050604051602001610cc693929190611e2d565b6040516020818303038152906040528051906020012060001c90506000600260008681526020019081526020016000206002018054905082610d0891906125aa565b90506000600260008781526020019081526020016000206002018281548110610d5a577f4e487b7100000000000000000000000000000000000000000000000000000000600052603260045260246000fd5b9060005260206000200160009054906101000a900473ffffffffffffffffffffffffffffffffffffffff1690508073ffffffffffffffffffffffffffffffffffffffff166108fc859081150290604051600060405180830381858888f19350505050158015610dcd573d6000803e3d6000fd5b50806002600088815260200190815260200160002060070160006101000a81548173ffffffffffffffffffffffffffffffffffffffff021916908373ffffffffffffffffffffffffffffffffffffffff160217905550600360008273ffffffffffffffffffffffffffffffffffffffff1673ffffffffffffffffffffffffffffffffffffffff168152602001908152602001600020600087815260200190815260200160002060020186908060018154018082558091505060019003906000526020600020016000909190919091505560006002600088815260200190815260200160002060070160146101000a81548160ff0219169083151502179055506002600087815260200190815260200160002060070160009054906101000a900473ffffffffffffffffffffffffffffffffffffffff1673ffffffffffffffffffffffffffffffffffffffff167f293c9f655bce43bd3c117702b69e833cf33ef35a999224abe5289ce386f9011987600260008a8152602001908152602001600020600001600260008b815260200190815260200160002060040154600260008c815260200190815260200160002060050154600260008d8152602001908152602001600020600201604051610fa6959493929190612133565b60405180910390a2505050505050565b60008054906101000a900473ffffffffffffffffffffffffffffffffffffffff1681565b6003602052816000526040600020602052806000526040600020600091509150508060000160009054906101000a900460ff16905081565b60008054906101000a900473ffffffffffffffffffffffffffffffffffffffff1673ffffffffffffffffffffffffffffffffffffffff163373ffffffffffffffffffffffffffffffffffffffff16146110a0576040517f08c379a000000000000000000000000000000000000000000000000000000000815260040161109790611f96565b60405180910390fd5b600182116110e3576040517f08c379a00000000000000000000000000000000000000000000000000000000081526004016110da90611ff6565b60405180910390fd5b604051806101400160405280848152602001428152602001600067ffffffffffffffff81111561113c577f4e487b7100000000000000000000000000000000000000000000000000000000600052604160045260246000fd5b60405190808252806020026020018201604052801561116a5781602001602082028036833780820191505090505b508152602001838152602001828152602001600081526020013373ffffffffffffffffffffffffffffffffffffffff168152602001600073ffffffffffffffffffffffffffffffffffffffff168152602001600115158152602001600115158152506002600042815260200190815260200160002060008201518160000190805190602001906111fb9291906115c8565b5060208201518160010155604082015181600201908051906020019061122292919061164e565b50606082015181600301556080820151816004015560a0820151816005015560c08201518160060160006101000a81548173ffffffffffffffffffffffffffffffffffffffff021916908373ffffffffffffffffffffffffffffffffffffffff16021790555060e08201518160070160006101000a81548173ffffffffffffffffffffffffffffffffffffffff021916908373ffffffffffffffffffffffffffffffffffffffff1602179055506101008201518160070160146101000a81548160ff0219169083151502179055506101208201518160070160156101000a81548160ff02191690831515021790555090505060014290806001815401808255809150506001900390600052602060002001600090919091909150553373ffffffffffffffffffffffffffffffffffffffff167ff5d10ae5eef0f0573ea0c20232af691435b31e9355592054eae767892f36f791428584604051611387939291906120f5565b60405180910390a2505050565b61139c6116d8565b600360003373ffffffffffffffffffffffffffffffffffffffff1673ffffffffffffffffffffffffffffffffffffffff16815260200190815260200160002060008381526020019081526020016000206040518060600160405290816000820160009054906101000a900460ff161515151581526020016001820180548060200260200160405190810160405280929190818152602001828054801561146157602002820191906000526020600020905b81548152602001906001019080831161144d575b50505050508152602001600282018054806020026020016040519081016040528092919081815260200182805480156114b957602002820191906000526020600020905b8154815260200190600101908083116114a5575b5050505050815250509050919050565b6060600180548060200260200160405190810160405280929190818152602001828054801561151757602002820191906000526020600020905b815481526020019060010190808311611503575b5050505050905090565b6001818154811061153157600080fd5b906000526020600020016000915090505481565b604051806101400160405280606081526020016000815260200160608152602001600081526020016000815260200160008152602001600073ffffffffffffffffffffffffffffffffffffffff168152602001600073ffffffffffffffffffffffffffffffffffffffff1681526020016000151581526020016000151581525090565b8280546115d490612523565b90600052602060002090601f0160209004810192826115f6576000855561163d565b82601f1061160f57805160ff191683800117855561163d565b8280016001018555821561163d579182015b8281111561163c578251825591602001919060010190611621565b5b50905061164a91906116fb565b5090565b8280548282559060005260206000209081019282156116c7579160200282015b828111156116c65782518260006101000a81548173ffffffffffffffffffffffffffffffffffffffff021916908373ffffffffffffffffffffffffffffffffffffffff1602179055509160200191906001019061166e565b5b5090506116d491906116fb565b5090565b604051806060016040528060001515815260200160608152602001606081525090565b5b808211156117145760008160009055506001016116fc565b5090565b600061172b61172684612228565b612203565b90508281526020810184848401111561174357600080fd5b61174e8482856124b7565b509392505050565b60008135905061176581612920565b92915050565b600082601f83011261177c57600080fd5b813561178c848260208601611718565b91505092915050565b6000813590506117a481612937565b92915050565b600080604083850312156117bd57600080fd5b60006117cb85828601611756565b92505060206117dc85828601611795565b9150509250929050565b6000806000606084860312156117fb57600080fd5b600084013567ffffffffffffffff81111561181557600080fd5b6118218682870161176b565b935050602061183286828701611795565b925050604061184386828701611795565b9150509250925092565b60006020828403121561185f57600080fd5b600061186d84828501611795565b91505092915050565b600061188283836118b5565b60208301905092915050565b600061189a8383611df8565b60208301905092915050565b6118af8161246f565b82525050565b6118be8161245d565b82525050565b6118cd8161245d565b82525050565b60006118de826122a3565b6118e881856122f6565b93506118f383612259565b8060005b8381101561192457815161190b8882611876565b9750611916836122cf565b9250506001810190506118f7565b5085935050505092915050565b600061193c826122ae565b6119468185612307565b935061195183612269565b8060005b838110156119895761196682612697565b6119708882611876565b975061197b836122dc565b925050600181019050611955565b5085935050505092915050565b60006119a1826122b9565b6119ab8185612318565b93506119b68361227e565b8060005b838110156119e75781516119ce888261188e565b97506119d9836122e9565b9250506001810190506119ba565b5085935050505092915050565b60006119ff826122b9565b611a098185612329565b9350611a148361227e565b8060005b83811015611a45578151611a2c888261188e565b9750611a37836122e9565b925050600181019050611a18565b5085935050505092915050565b611a5b81612481565b82525050565b611a6a81612481565b82525050565b6000611a7b826122c4565b611a85818561233a565b9350611a958185602086016124c6565b611a9e816126aa565b840191505092915050565b6000611ab4826122c4565b611abe818561234b565b9350611ace8185602086016124c6565b611ad7816126aa565b840191505092915050565b60008154611aef81612523565b611af9818661234b565b94506001821660008114611b145760018114611b2657611b59565b60ff1983168652602086019350611b59565b611b2f8561228e565b60005b83811015611b5157815481890152600182019150602081019050611b32565b808801955050505b50505092915050565b6000611b6f60218361234b565b9150611b7a826126c8565b604082019050919050565b6000611b9260158361234b565b9150611b9d82612717565b602082019050919050565b6000611bb560288361234b565b9150611bc082612740565b604082019050919050565b6000611bd860128361234b565b9150611be38261278f565b602082019050919050565b6000611bfb60238361234b565b9150611c06826127b8565b604082019050919050565b6000611c1e60268361234b565b9150611c2982612807565b604082019050919050565b6000611c4160208361234b565b9150611c4c82612856565b602082019050919050565b6000611c64602b8361234b565b9150611c6f8261287f565b604082019050919050565b6000611c87600c8361234b565b9150611c92826128ce565b602082019050919050565b6000611caa60208361234b565b9150611cb5826128f7565b602082019050919050565b6000606083016000830151611cd86000860182611a52565b5060208301518482036020860152611cf08282611996565b91505060408301518482036040860152611d0a8282611996565b9150508091505092915050565b6000610140830160008301518482036000860152611d358282611a70565b9150506020830151611d4a6020860182611df8565b5060408301518482036040860152611d6282826118d3565b9150506060830151611d776060860182611df8565b506080830151611d8a6080860182611df8565b5060a0830151611d9d60a0860182611df8565b5060c0830151611db060c08601826118b5565b5060e0830151611dc360e08601826118b5565b50610100830151611dd8610100860182611a52565b50610120830151611ded610120860182611a52565b508091505092915050565b611e01816124ad565b82525050565b611e10816124ad565b82525050565b611e27611e22826124ad565b6125a0565b82525050565b6000611e398286611e16565b602082019150611e498285611e16565b602082019150611e598284611e16565b602082019150819050949350505050565b6000602082019050611e7f60008301846118a6565b92915050565b60006020820190508181036000830152611e9f81846119f4565b905092915050565b6000602082019050611ebc6000830184611a61565b92915050565b6000610120820190508181036000830152611edd818c611aa9565b9050611eec602083018b611e07565b611ef9604083018a611e07565b611f066060830189611e07565b611f136080830188611e07565b611f2060a08301876118c4565b611f2d60c08301866118c4565b611f3a60e0830185611a61565b611f48610100830184611a61565b9a9950505050505050505050565b60006020820190508181036000830152611f6f81611b62565b9050919050565b60006020820190508181036000830152611f8f81611b85565b9050919050565b60006020820190508181036000830152611faf81611ba8565b9050919050565b60006020820190508181036000830152611fcf81611bcb565b9050919050565b60006020820190508181036000830152611fef81611bee565b9050919050565b6000602082019050818103600083015261200f81611c11565b9050919050565b6000602082019050818103600083015261202f81611c34565b9050919050565b6000602082019050818103600083015261204f81611c57565b9050919050565b6000602082019050818103600083015261206f81611c7a565b9050919050565b6000602082019050818103600083015261208f81611c9d565b9050919050565b600060208201905081810360008301526120b08184611cc0565b905092915050565b600060208201905081810360008301526120d28184611d17565b905092915050565b60006020820190506120ef6000830184611e07565b92915050565b600060608201905061210a6000830186611e07565b818103602083015261211c8185611aa9565b905061212b6040830184611e07565b949350505050565b600060a0820190506121486000830188611e07565b818103602083015261215a8187611ae2565b90506121696040830186611e07565b6121766060830185611e07565b81810360808301526121888184611931565b90509695505050505050565b600060c0820190506121a96000830189611e07565b81810360208301526121bb8188611ae2565b90506121ca6040830187611e07565b6121d76060830186611e07565b6121e46080830185611e07565b81810360a08301526121f68184611931565b9050979650505050505050565b600061220d61221e565b9050612219828261256f565b919050565b6000604051905090565b600067ffffffffffffffff82111561224357612242612668565b5b61224c826126aa565b9050602081019050919050565b6000819050602082019050919050565b60008190508160005260206000209050919050565b6000819050602082019050919050565b60008190508160005260206000209050919050565b600081519050919050565b600081549050919050565b600081519050919050565b600081519050919050565b6000602082019050919050565b6000600182019050919050565b6000602082019050919050565b600082825260208201905092915050565b600082825260208201905092915050565b600082825260208201905092915050565b600082825260208201905092915050565b600082825260208201905092915050565b600082825260208201905092915050565b6000612367826124ad565b9150612372836124ad565b9250827fffffffffffffffffffffffffffffffffffffffffffffffffffffffffffffffff038211156123a7576123a66125db565b5b828201905092915050565b60006123bd826124ad565b91506123c8836124ad565b9250826123d8576123d761260a565b5b828204905092915050565b60006123ee826124ad565b91506123f9836124ad565b9250817fffffffffffffffffffffffffffffffffffffffffffffffffffffffffffffffff0483118215151615612432576124316125db565b5b828202905092915050565b600073ffffffffffffffffffffffffffffffffffffffff82169050919050565b60006124688261248d565b9050919050565b600061247a8261248d565b9050919050565b60008115159050919050565b600073ffffffffffffffffffffffffffffffffffffffff82169050919050565b6000819050919050565b82818337600083830152505050565b60005b838110156124e45780820151818401526020810190506124c9565b838111156124f3576000848401525b50505050565b6000612504826124ad565b91506000821415612518576125176125db565b5b600182039050919050565b6000600282049050600182168061253b57607f821691505b6020821081141561254f5761254e612639565b5b50919050565b6000612568612563836126bb565b61243d565b9050919050565b612578826126aa565b810181811067ffffffffffffffff8211171561259757612596612668565b5b80604052505050565b6000819050919050565b60006125b5826124ad565b91506125c0836124ad565b9250826125d0576125cf61260a565b5b828206905092915050565b7f4e487b7100000000000000000000000000000000000000000000000000000000600052601160045260246000fd5b7f4e487b7100000000000000000000000000000000000000000000000000000000600052601260045260246000fd5b7f4e487b7100000000000000000000000000000000000000000000000000000000600052602260045260246000fd5b7f4e487b7100000000000000000000000000000000000000000000000000000000600052604160045260246000fd5b60006126a38254612555565b9050919050565b6000601f19601f8301169050919050565b60008160001c9050919050565b7f506f6f6c20646f65736e6f7420657869737473207769746820676976656e204960008201527f6400000000000000000000000000000000000000000000000000000000000000602082015250565b7f506f6f6c206973206e6f742066696c6c65642075700000000000000000000000600082015250565b7f4f6e6c79206f776e65722063616e206372656174652061206e6577206c6f747460008201527f65727920706f6f6c000000000000000000000000000000000000000000000000602082015250565b7f506f6f6c206973206e6f74206163746976650000000000000000000000000000600082015250565b7f596f752061726520616c7265616479206a6f696e656420696e2074686973207060008201527f6f6f6c0000000000000000000000000000000000000000000000000000000000602082015250565b7f417661696c61626c6520736c6f7473206d75737420626520677265617465722060008201527f7468616e20310000000000000000000000000000000000000000000000000000602082015250565b7f4f6e6c7920706f6f6c206f776e65722063616e20647261772077696e6e657273600082015250565b7f616d6f756e74206d75737420626520657175616c20746f206a6f696e696e672060008201527f666565206f6620706f6f6c000000000000000000000000000000000000000000602082015250565b7f506f6f6c2069732066756c6c0000000000000000000000000000000000000000600082015250565b7f506f6f6c206973206e6f7420616374697665207769746820676976656e204964600082015250565b6129298161245d565b811461293457600080fd5b50565b612940816124ad565b811461294b57600080fd5b5056fea2646970667358221220d554672c7c3712a38b1d4222176069ef8397b1c3bc02d738f64f996d123bd29f64736f6c63430008030033",
          "opcodes": "PUSH1 0x80 PUSH1 0x40 MSTORE CALLVALUE DUP1 ISZERO PUSH2 0x10 JUMPI PUSH1 0x0 DUP1 REVERT JUMPDEST POP CALLER PUSH1 0x0 DUP1 PUSH2 0x100 EXP DUP2 SLOAD DUP2 PUSH20 0xFFFFFFFFFFFFFFFFFFFFFFFFFFFFFFFFFFFFFFFF MUL NOT AND SWAP1 DUP4 PUSH20 0xFFFFFFFFFFFFFFFFFFFFFFFFFFFFFFFFFFFFFFFF AND MUL OR SWAP1 SSTORE POP PUSH2 0x2984 DUP1 PUSH2 0x60 PUSH1 0x0 CODECOPY PUSH1 0x0 RETURN INVALID PUSH1 0x80 PUSH1 0x40 MSTORE PUSH1 0x4 CALLDATASIZE LT PUSH2 0x91 JUMPI PUSH1 0x0 CALLDATALOAD PUSH1 0xE0 SHR DUP1 PUSH4 0x8E2B27E1 GT PUSH2 0x59 JUMPI DUP1 PUSH4 0x8E2B27E1 EQ PUSH2 0x17B JUMPI DUP1 PUSH4 0xA8A07586 EQ PUSH2 0x1B8 JUMPI DUP1 PUSH4 0xC61CBD13 EQ PUSH2 0x1D4 JUMPI DUP1 PUSH4 0xD1FF907B EQ PUSH2 0x211 JUMPI DUP1 PUSH4 0xD2627383 EQ PUSH2 0x23C JUMPI PUSH2 0x91 JUMP JUMPDEST DUP1 PUSH4 0x4435B17C EQ PUSH2 0x96 JUMPI DUP1 PUSH4 0x4445F30C EQ PUSH2 0xB2 JUMPI DUP1 PUSH4 0x44ED3F58 EQ PUSH2 0xEF JUMPI DUP1 PUSH4 0x60B2A56A EQ PUSH2 0x134 JUMPI DUP1 PUSH4 0x8DA5CB5B EQ PUSH2 0x150 JUMPI JUMPDEST PUSH1 0x0 DUP1 REVERT JUMPDEST PUSH2 0xB0 PUSH1 0x4 DUP1 CALLDATASIZE SUB DUP2 ADD SWAP1 PUSH2 0xAB SWAP2 SWAP1 PUSH2 0x184D JUMP JUMPDEST PUSH2 0x279 JUMP JUMPDEST STOP JUMPDEST CALLVALUE DUP1 ISZERO PUSH2 0xBE JUMPI PUSH1 0x0 DUP1 REVERT JUMPDEST POP PUSH2 0xD9 PUSH1 0x4 DUP1 CALLDATASIZE SUB DUP2 ADD SWAP1 PUSH2 0xD4 SWAP2 SWAP1 PUSH2 0x184D JUMP JUMPDEST PUSH2 0x6F7 JUMP JUMPDEST PUSH1 0x40 MLOAD PUSH2 0xE6 SWAP2 SWAP1 PUSH2 0x20B8 JUMP JUMPDEST PUSH1 0x40 MLOAD DUP1 SWAP2 SUB SWAP1 RETURN JUMPDEST CALLVALUE DUP1 ISZERO PUSH2 0xFB JUMPI PUSH1 0x0 DUP1 REVERT JUMPDEST POP PUSH2 0x116 PUSH1 0x4 DUP1 CALLDATASIZE SUB DUP2 ADD SWAP1 PUSH2 0x111 SWAP2 SWAP1 PUSH2 0x184D JUMP JUMPDEST PUSH2 0x94F JUMP JUMPDEST PUSH1 0x40 MLOAD PUSH2 0x12B SWAP10 SWAP9 SWAP8 SWAP7 SWAP6 SWAP5 SWAP4 SWAP3 SWAP2 SWAP1 PUSH2 0x1EC2 JUMP JUMPDEST PUSH1 0x40 MLOAD DUP1 SWAP2 SUB SWAP1 RETURN JUMPDEST PUSH2 0x14E PUSH1 0x4 DUP1 CALLDATASIZE SUB DUP2 ADD SWAP1 PUSH2 0x149 SWAP2 SWAP1 PUSH2 0x184D JUMP JUMPDEST PUSH2 0xA7F JUMP JUMPDEST STOP JUMPDEST CALLVALUE DUP1 ISZERO PUSH2 0x15C JUMPI PUSH1 0x0 DUP1 REVERT JUMPDEST POP PUSH2 0x165 PUSH2 0xFB6 JUMP JUMPDEST PUSH1 0x40 MLOAD PUSH2 0x172 SWAP2 SWAP1 PUSH2 0x1E6A JUMP JUMPDEST PUSH1 0x40 MLOAD DUP1 SWAP2 SUB SWAP1 RETURN JUMPDEST CALLVALUE DUP1 ISZERO PUSH2 0x187 JUMPI PUSH1 0x0 DUP1 REVERT JUMPDEST POP PUSH2 0x1A2 PUSH1 0x4 DUP1 CALLDATASIZE SUB DUP2 ADD SWAP1 PUSH2 0x19D SWAP2 SWAP1 PUSH2 0x17AA JUMP JUMPDEST PUSH2 0xFDA JUMP JUMPDEST PUSH1 0x40 MLOAD PUSH2 0x1AF SWAP2 SWAP1 PUSH2 0x1EA7 JUMP JUMPDEST PUSH1 0x40 MLOAD DUP1 SWAP2 SUB SWAP1 RETURN JUMPDEST PUSH2 0x1D2 PUSH1 0x4 DUP1 CALLDATASIZE SUB DUP2 ADD SWAP1 PUSH2 0x1CD SWAP2 SWAP1 PUSH2 0x17E6 JUMP JUMPDEST PUSH2 0x1012 JUMP JUMPDEST STOP JUMPDEST CALLVALUE DUP1 ISZERO PUSH2 0x1E0 JUMPI PUSH1 0x0 DUP1 REVERT JUMPDEST POP PUSH2 0x1FB PUSH1 0x4 DUP1 CALLDATASIZE SUB DUP2 ADD SWAP1 PUSH2 0x1F6 SWAP2 SWAP1 PUSH2 0x184D JUMP JUMPDEST PUSH2 0x1394 JUMP JUMPDEST PUSH1 0x40 MLOAD PUSH2 0x208 SWAP2 SWAP1 PUSH2 0x2096 JUMP JUMPDEST PUSH1 0x40 MLOAD DUP1 SWAP2 SUB SWAP1 RETURN JUMPDEST CALLVALUE DUP1 ISZERO PUSH2 0x21D JUMPI PUSH1 0x0 DUP1 REVERT JUMPDEST POP PUSH2 0x226 PUSH2 0x14C9 JUMP JUMPDEST PUSH1 0x40 MLOAD PUSH2 0x233 SWAP2 SWAP1 PUSH2 0x1E85 JUMP JUMPDEST PUSH1 0x40 MLOAD DUP1 SWAP2 SUB SWAP1 RETURN JUMPDEST CALLVALUE DUP1 ISZERO PUSH2 0x248 JUMPI PUSH1 0x0 DUP1 REVERT JUMPDEST POP PUSH2 0x263 PUSH1 0x4 DUP1 CALLDATASIZE SUB DUP2 ADD SWAP1 PUSH2 0x25E SWAP2 SWAP1 PUSH2 0x184D JUMP JUMPDEST PUSH2 0x1521 JUMP JUMPDEST PUSH1 0x40 MLOAD PUSH2 0x270 SWAP2 SWAP1 PUSH2 0x20DA JUMP JUMPDEST PUSH1 0x40 MLOAD DUP1 SWAP2 SUB SWAP1 RETURN JUMPDEST PUSH1 0x2 PUSH1 0x0 DUP3 DUP2 MSTORE PUSH1 0x20 ADD SWAP1 DUP2 MSTORE PUSH1 0x20 ADD PUSH1 0x0 KECCAK256 PUSH1 0x7 ADD PUSH1 0x15 SWAP1 SLOAD SWAP1 PUSH2 0x100 EXP SWAP1 DIV PUSH1 0xFF AND PUSH2 0x2DC JUMPI PUSH1 0x40 MLOAD PUSH32 0x8C379A000000000000000000000000000000000000000000000000000000000 DUP2 MSTORE PUSH1 0x4 ADD PUSH2 0x2D3 SWAP1 PUSH2 0x1F56 JUMP JUMPDEST PUSH1 0x40 MLOAD DUP1 SWAP2 SUB SWAP1 REVERT JUMPDEST PUSH1 0x2 PUSH1 0x0 DUP3 DUP2 MSTORE PUSH1 0x20 ADD SWAP1 DUP2 MSTORE PUSH1 0x20 ADD PUSH1 0x0 KECCAK256 PUSH1 0x7 ADD PUSH1 0x14 SWAP1 SLOAD SWAP1 PUSH2 0x100 EXP SWAP1 DIV PUSH1 0xFF AND PUSH2 0x33F JUMPI PUSH1 0x40 MLOAD PUSH32 0x8C379A000000000000000000000000000000000000000000000000000000000 DUP2 MSTORE PUSH1 0x4 ADD PUSH2 0x336 SWAP1 PUSH2 0x1FB6 JUMP JUMPDEST PUSH1 0x40 MLOAD DUP1 SWAP2 SUB SWAP1 REVERT JUMPDEST PUSH1 0x0 PUSH1 0x2 PUSH1 0x0 DUP4 DUP2 MSTORE PUSH1 0x20 ADD SWAP1 DUP2 MSTORE PUSH1 0x20 ADD PUSH1 0x0 KECCAK256 PUSH1 0x3 ADD SLOAD GT PUSH2 0x398 JUMPI PUSH1 0x40 MLOAD PUSH32 0x8C379A000000000000000000000000000000000000000000000000000000000 DUP2 MSTORE PUSH1 0x4 ADD PUSH2 0x38F SWAP1 PUSH2 0x2056 JUMP JUMPDEST PUSH1 0x40 MLOAD DUP1 SWAP2 SUB SWAP1 REVERT JUMPDEST CALLVALUE PUSH1 0x2 PUSH1 0x0 DUP4 DUP2 MSTORE PUSH1 0x20 ADD SWAP1 DUP2 MSTORE PUSH1 0x20 ADD PUSH1 0x0 KECCAK256 PUSH1 0x4 ADD SLOAD EQ PUSH2 0x3F0 JUMPI PUSH1 0x40 MLOAD PUSH32 0x8C379A000000000000000000000000000000000000000000000000000000000 DUP2 MSTORE PUSH1 0x4 ADD PUSH2 0x3E7 SWAP1 PUSH2 0x2036 JUMP JUMPDEST PUSH1 0x40 MLOAD DUP1 SWAP2 SUB SWAP1 REVERT JUMPDEST PUSH1 0x3 PUSH1 0x0 CALLER PUSH20 0xFFFFFFFFFFFFFFFFFFFFFFFFFFFFFFFFFFFFFFFF AND PUSH20 0xFFFFFFFFFFFFFFFFFFFFFFFFFFFFFFFFFFFFFFFF AND DUP2 MSTORE PUSH1 0x20 ADD SWAP1 DUP2 MSTORE PUSH1 0x20 ADD PUSH1 0x0 KECCAK256 PUSH1 0x0 DUP3 DUP2 MSTORE PUSH1 0x20 ADD SWAP1 DUP2 MSTORE PUSH1 0x20 ADD PUSH1 0x0 KECCAK256 PUSH1 0x0 ADD PUSH1 0x0 SWAP1 SLOAD SWAP1 PUSH2 0x100 EXP SWAP1 DIV PUSH1 0xFF AND ISZERO PUSH2 0x491 JUMPI PUSH1 0x40 MLOAD PUSH32 0x8C379A000000000000000000000000000000000000000000000000000000000 DUP2 MSTORE PUSH1 0x4 ADD PUSH2 0x488 SWAP1 PUSH2 0x1FD6 JUMP JUMPDEST PUSH1 0x40 MLOAD DUP1 SWAP2 SUB SWAP1 REVERT JUMPDEST PUSH1 0x2 PUSH1 0x0 DUP3 DUP2 MSTORE PUSH1 0x20 ADD SWAP1 DUP2 MSTORE PUSH1 0x20 ADD PUSH1 0x0 KECCAK256 PUSH1 0x2 ADD CALLER SWAP1 DUP1 PUSH1 0x1 DUP2 SLOAD ADD DUP1 DUP3 SSTORE DUP1 SWAP2 POP POP PUSH1 0x1 SWAP1 SUB SWAP1 PUSH1 0x0 MSTORE PUSH1 0x20 PUSH1 0x0 KECCAK256 ADD PUSH1 0x0 SWAP1 SWAP2 SWAP1 SWAP2 SWAP1 SWAP2 PUSH2 0x100 EXP DUP2 SLOAD DUP2 PUSH20 0xFFFFFFFFFFFFFFFFFFFFFFFFFFFFFFFFFFFFFFFF MUL NOT AND SWAP1 DUP4 PUSH20 0xFFFFFFFFFFFFFFFFFFFFFFFFFFFFFFFFFFFFFFFF AND MUL OR SWAP1 SSTORE POP CALLVALUE PUSH1 0x2 PUSH1 0x0 DUP4 DUP2 MSTORE PUSH1 0x20 ADD SWAP1 DUP2 MSTORE PUSH1 0x20 ADD PUSH1 0x0 KECCAK256 PUSH1 0x5 ADD PUSH1 0x0 DUP3 DUP3 SLOAD PUSH2 0x52E SWAP2 SWAP1 PUSH2 0x235C JUMP JUMPDEST SWAP3 POP POP DUP2 SWAP1 SSTORE POP PUSH1 0x2 PUSH1 0x0 DUP3 DUP2 MSTORE PUSH1 0x20 ADD SWAP1 DUP2 MSTORE PUSH1 0x20 ADD PUSH1 0x0 KECCAK256 PUSH1 0x3 ADD PUSH1 0x0 DUP2 SLOAD DUP1 SWAP3 SWAP2 SWAP1 PUSH2 0x55C SWAP1 PUSH2 0x24F9 JUMP JUMPDEST SWAP2 SWAP1 POP SSTORE POP PUSH1 0x1 PUSH1 0x3 PUSH1 0x0 CALLER PUSH20 0xFFFFFFFFFFFFFFFFFFFFFFFFFFFFFFFFFFFFFFFF AND PUSH20 0xFFFFFFFFFFFFFFFFFFFFFFFFFFFFFFFFFFFFFFFF AND DUP2 MSTORE PUSH1 0x20 ADD SWAP1 DUP2 MSTORE PUSH1 0x20 ADD PUSH1 0x0 KECCAK256 PUSH1 0x0 DUP4 DUP2 MSTORE PUSH1 0x20 ADD SWAP1 DUP2 MSTORE PUSH1 0x20 ADD PUSH1 0x0 KECCAK256 PUSH1 0x0 ADD PUSH1 0x0 PUSH2 0x100 EXP DUP2 SLOAD DUP2 PUSH1 0xFF MUL NOT AND SWAP1 DUP4 ISZERO ISZERO MUL OR SWAP1 SSTORE POP PUSH1 0x3 PUSH1 0x0 CALLER PUSH20 0xFFFFFFFFFFFFFFFFFFFFFFFFFFFFFFFFFFFFFFFF AND PUSH20 0xFFFFFFFFFFFFFFFFFFFFFFFFFFFFFFFFFFFFFFFF AND DUP2 MSTORE PUSH1 0x20 ADD SWAP1 DUP2 MSTORE PUSH1 0x20 ADD PUSH1 0x0 KECCAK256 PUSH1 0x0 DUP3 DUP2 MSTORE PUSH1 0x20 ADD SWAP1 DUP2 MSTORE PUSH1 0x20 ADD PUSH1 0x0 KECCAK256 PUSH1 0x1 ADD DUP2 SWAP1 DUP1 PUSH1 0x1 DUP2 SLOAD ADD DUP1 DUP3 SSTORE DUP1 SWAP2 POP POP PUSH1 0x1 SWAP1 SUB SWAP1 PUSH1 0x0 MSTORE PUSH1 0x20 PUSH1 0x0 KECCAK256 ADD PUSH1 0x0 SWAP1 SWAP2 SWAP1 SWAP2 SWAP1 SWAP2 POP SSTORE PUSH32 0xF86BDB19F19AA826E176E1D82140FF7093798030E1DB52349C0FD748D16F369C DUP2 PUSH1 0x2 PUSH1 0x0 DUP5 DUP2 MSTORE PUSH1 0x20 ADD SWAP1 DUP2 MSTORE PUSH1 0x20 ADD PUSH1 0x0 KECCAK256 PUSH1 0x0 ADD PUSH1 0x2 PUSH1 0x0 DUP6 DUP2 MSTORE PUSH1 0x20 ADD SWAP1 DUP2 MSTORE PUSH1 0x20 ADD PUSH1 0x0 KECCAK256 PUSH1 0x4 ADD SLOAD PUSH1 0x2 PUSH1 0x0 DUP7 DUP2 MSTORE PUSH1 0x20 ADD SWAP1 DUP2 MSTORE PUSH1 0x20 ADD PUSH1 0x0 KECCAK256 PUSH1 0x5 ADD SLOAD PUSH1 0x2 PUSH1 0x0 DUP8 DUP2 MSTORE PUSH1 0x20 ADD SWAP1 DUP2 MSTORE PUSH1 0x20 ADD PUSH1 0x0 KECCAK256 PUSH1 0x3 ADD SLOAD PUSH1 0x2 PUSH1 0x0 DUP9 DUP2 MSTORE PUSH1 0x20 ADD SWAP1 DUP2 MSTORE PUSH1 0x20 ADD PUSH1 0x0 KECCAK256 PUSH1 0x2 ADD PUSH1 0x40 MLOAD PUSH2 0x6EC SWAP7 SWAP6 SWAP5 SWAP4 SWAP3 SWAP2 SWAP1 PUSH2 0x2194 JUMP JUMPDEST PUSH1 0x40 MLOAD DUP1 SWAP2 SUB SWAP1 LOG1 POP JUMP JUMPDEST PUSH2 0x6FF PUSH2 0x1545 JUMP JUMPDEST PUSH1 0x2 PUSH1 0x0 DUP4 DUP2 MSTORE PUSH1 0x20 ADD SWAP1 DUP2 MSTORE PUSH1 0x20 ADD PUSH1 0x0 KECCAK256 PUSH1 0x40 MLOAD DUP1 PUSH2 0x140 ADD PUSH1 0x40 MSTORE SWAP1 DUP2 PUSH1 0x0 DUP3 ADD DUP1 SLOAD PUSH2 0x72E SWAP1 PUSH2 0x2523 JUMP JUMPDEST DUP1 PUSH1 0x1F ADD PUSH1 0x20 DUP1 SWAP2 DIV MUL PUSH1 0x20 ADD PUSH1 0x40 MLOAD SWAP1 DUP2 ADD PUSH1 0x40 MSTORE DUP1 SWAP3 SWAP2 SWAP1 DUP2 DUP2 MSTORE PUSH1 0x20 ADD DUP3 DUP1 SLOAD PUSH2 0x75A SWAP1 PUSH2 0x2523 JUMP JUMPDEST DUP1 ISZERO PUSH2 0x7A7 JUMPI DUP1 PUSH1 0x1F LT PUSH2 0x77C JUMPI PUSH2 0x100 DUP1 DUP4 SLOAD DIV MUL DUP4 MSTORE SWAP2 PUSH1 0x20 ADD SWAP2 PUSH2 0x7A7 JUMP JUMPDEST DUP3 ADD SWAP2 SWAP1 PUSH1 0x0 MSTORE PUSH1 0x20 PUSH1 0x0 KECCAK256 SWAP1 JUMPDEST DUP2 SLOAD DUP2 MSTORE SWAP1 PUSH1 0x1 ADD SWAP1 PUSH1 0x20 ADD DUP1 DUP4 GT PUSH2 0x78A JUMPI DUP3 SWAP1 SUB PUSH1 0x1F AND DUP3 ADD SWAP2 JUMPDEST POP POP POP POP POP DUP2 MSTORE PUSH1 0x20 ADD PUSH1 0x1 DUP3 ADD SLOAD DUP2 MSTORE PUSH1 0x20 ADD PUSH1 0x2 DUP3 ADD DUP1 SLOAD DUP1 PUSH1 0x20 MUL PUSH1 0x20 ADD PUSH1 0x40 MLOAD SWAP1 DUP2 ADD PUSH1 0x40 MSTORE DUP1 SWAP3 SWAP2 SWAP1 DUP2 DUP2 MSTORE PUSH1 0x20 ADD DUP3 DUP1 SLOAD DUP1 ISZERO PUSH2 0x83F JUMPI PUSH1 0x20 MUL DUP3 ADD SWAP2 SWAP1 PUSH1 0x0 MSTORE PUSH1 0x20 PUSH1 0x0 KECCAK256 SWAP1 JUMPDEST DUP2 PUSH1 0x0 SWAP1 SLOAD SWAP1 PUSH2 0x100 EXP SWAP1 DIV PUSH20 0xFFFFFFFFFFFFFFFFFFFFFFFFFFFFFFFFFFFFFFFF AND PUSH20 0xFFFFFFFFFFFFFFFFFFFFFFFFFFFFFFFFFFFFFFFF AND DUP2 MSTORE PUSH1 0x20 ADD SWAP1 PUSH1 0x1 ADD SWAP1 DUP1 DUP4 GT PUSH2 0x7F5 JUMPI JUMPDEST POP POP POP POP POP DUP2 MSTORE PUSH1 0x20 ADD PUSH1 0x3 DUP3 ADD SLOAD DUP2 MSTORE PUSH1 0x20 ADD PUSH1 0x4 DUP3 ADD SLOAD DUP2 MSTORE PUSH1 0x20 ADD PUSH1 0x5 DUP3 ADD SLOAD DUP2 MSTORE PUSH1 0x20 ADD PUSH1 0x6 DUP3 ADD PUSH1 0x0 SWAP1 SLOAD SWAP1 PUSH2 0x100 EXP SWAP1 DIV PUSH20 0xFFFFFFFFFFFFFFFFFFFFFFFFFFFFFFFFFFFFFFFF AND PUSH20 0xFFFFFFFFFFFFFFFFFFFFFFFFFFFFFFFFFFFFFFFF AND PUSH20 0xFFFFFFFFFFFFFFFFFFFFFFFFFFFFFFFFFFFFFFFF AND DUP2 MSTORE PUSH1 0x20 ADD PUSH1 0x7 DUP3 ADD PUSH1 0x0 SWAP1 SLOAD SWAP1 PUSH2 0x100 EXP SWAP1 DIV PUSH20 0xFFFFFFFFFFFFFFFFFFFFFFFFFFFFFFFFFFFFFFFF AND PUSH20 0xFFFFFFFFFFFFFFFFFFFFFFFFFFFFFFFFFFFFFFFF AND PUSH20 0xFFFFFFFFFFFFFFFFFFFFFFFFFFFFFFFFFFFFFFFF AND DUP2 MSTORE PUSH1 0x20 ADD PUSH1 0x7 DUP3 ADD PUSH1 0x14 SWAP1 SLOAD SWAP1 PUSH2 0x100 EXP SWAP1 DIV PUSH1 0xFF AND ISZERO ISZERO ISZERO ISZERO DUP2 MSTORE PUSH1 0x20 ADD PUSH1 0x7 DUP3 ADD PUSH1 0x15 SWAP1 SLOAD SWAP1 PUSH2 0x100 EXP SWAP1 DIV PUSH1 0xFF AND ISZERO ISZERO ISZERO ISZERO DUP2 MSTORE POP POP SWAP1 POP SWAP2 SWAP1 POP JUMP JUMPDEST PUSH1 0x2 PUSH1 0x20 MSTORE DUP1 PUSH1 0x0 MSTORE PUSH1 0x40 PUSH1 0x0 KECCAK256 PUSH1 0x0 SWAP2 POP SWAP1 POP DUP1 PUSH1 0x0 ADD DUP1 SLOAD PUSH2 0x972 SWAP1 PUSH2 0x2523 JUMP JUMPDEST DUP1 PUSH1 0x1F ADD PUSH1 0x20 DUP1 SWAP2 DIV MUL PUSH1 0x20 ADD PUSH1 0x40 MLOAD SWAP1 DUP2 ADD PUSH1 0x40 MSTORE DUP1 SWAP3 SWAP2 SWAP1 DUP2 DUP2 MSTORE PUSH1 0x20 ADD DUP3 DUP1 SLOAD PUSH2 0x99E SWAP1 PUSH2 0x2523 JUMP JUMPDEST DUP1 ISZERO PUSH2 0x9EB JUMPI DUP1 PUSH1 0x1F LT PUSH2 0x9C0 JUMPI PUSH2 0x100 DUP1 DUP4 SLOAD DIV MUL DUP4 MSTORE SWAP2 PUSH1 0x20 ADD SWAP2 PUSH2 0x9EB JUMP JUMPDEST DUP3 ADD SWAP2 SWAP1 PUSH1 0x0 MSTORE PUSH1 0x20 PUSH1 0x0 KECCAK256 SWAP1 JUMPDEST DUP2 SLOAD DUP2 MSTORE SWAP1 PUSH1 0x1 ADD SWAP1 PUSH1 0x20 ADD DUP1 DUP4 GT PUSH2 0x9CE JUMPI DUP3 SWAP1 SUB PUSH1 0x1F AND DUP3 ADD SWAP2 JUMPDEST POP POP POP POP POP SWAP1 DUP1 PUSH1 0x1 ADD SLOAD SWAP1 DUP1 PUSH1 0x3 ADD SLOAD SWAP1 DUP1 PUSH1 0x4 ADD SLOAD SWAP1 DUP1 PUSH1 0x5 ADD SLOAD SWAP1 DUP1 PUSH1 0x6 ADD PUSH1 0x0 SWAP1 SLOAD SWAP1 PUSH2 0x100 EXP SWAP1 DIV PUSH20 0xFFFFFFFFFFFFFFFFFFFFFFFFFFFFFFFFFFFFFFFF AND SWAP1 DUP1 PUSH1 0x7 ADD PUSH1 0x0 SWAP1 SLOAD SWAP1 PUSH2 0x100 EXP SWAP1 DIV PUSH20 0xFFFFFFFFFFFFFFFFFFFFFFFFFFFFFFFFFFFFFFFF AND SWAP1 DUP1 PUSH1 0x7 ADD PUSH1 0x14 SWAP1 SLOAD SWAP1 PUSH2 0x100 EXP SWAP1 DIV PUSH1 0xFF AND SWAP1 DUP1 PUSH1 0x7 ADD PUSH1 0x15 SWAP1 SLOAD SWAP1 PUSH2 0x100 EXP SWAP1 DIV PUSH1 0xFF AND SWAP1 POP DUP10 JUMP JUMPDEST PUSH1 0x0 DUP1 SLOAD SWAP1 PUSH2 0x100 EXP SWAP1 DIV PUSH20 0xFFFFFFFFFFFFFFFFFFFFFFFFFFFFFFFFFFFFFFFF AND PUSH20 0xFFFFFFFFFFFFFFFFFFFFFFFFFFFFFFFFFFFFFFFF AND CALLER PUSH20 0xFFFFFFFFFFFFFFFFFFFFFFFFFFFFFFFFFFFFFFFF AND EQ PUSH2 0xB0D JUMPI PUSH1 0x40 MLOAD PUSH32 0x8C379A000000000000000000000000000000000000000000000000000000000 DUP2 MSTORE PUSH1 0x4 ADD PUSH2 0xB04 SWAP1 PUSH2 0x2016 JUMP JUMPDEST PUSH1 0x40 MLOAD DUP1 SWAP2 SUB SWAP1 REVERT JUMPDEST PUSH1 0x2 PUSH1 0x0 DUP3 DUP2 MSTORE PUSH1 0x20 ADD SWAP1 DUP2 MSTORE PUSH1 0x20 ADD PUSH1 0x0 KECCAK256 PUSH1 0x7 ADD PUSH1 0x14 SWAP1 SLOAD SWAP1 PUSH2 0x100 EXP SWAP1 DIV PUSH1 0xFF AND PUSH2 0xB70 JUMPI PUSH1 0x40 MLOAD PUSH32 0x8C379A000000000000000000000000000000000000000000000000000000000 DUP2 MSTORE PUSH1 0x4 ADD PUSH2 0xB67 SWAP1 PUSH2 0x2076 JUMP JUMPDEST PUSH1 0x40 MLOAD DUP1 SWAP2 SUB SWAP1 REVERT JUMPDEST PUSH1 0x0 PUSH1 0x2 PUSH1 0x0 DUP4 DUP2 MSTORE PUSH1 0x20 ADD SWAP1 DUP2 MSTORE PUSH1 0x20 ADD PUSH1 0x0 KECCAK256 PUSH1 0x3 ADD SLOAD EQ PUSH2 0xBC9 JUMPI PUSH1 0x40 MLOAD PUSH32 0x8C379A000000000000000000000000000000000000000000000000000000000 DUP2 MSTORE PUSH1 0x4 ADD PUSH2 0xBC0 SWAP1 PUSH2 0x1F76 JUMP JUMPDEST PUSH1 0x40 MLOAD DUP1 SWAP2 SUB SWAP1 REVERT JUMPDEST PUSH1 0x0 PUSH1 0x64 PUSH1 0xA PUSH1 0x2 PUSH1 0x0 DUP6 DUP2 MSTORE PUSH1 0x20 ADD SWAP1 DUP2 MSTORE PUSH1 0x20 ADD PUSH1 0x0 KECCAK256 PUSH1 0x5 ADD SLOAD PUSH2 0xBF0 SWAP2 SWAP1 PUSH2 0x23E3 JUMP JUMPDEST PUSH2 0xBFA SWAP2 SWAP1 PUSH2 0x23B2 JUMP JUMPDEST SWAP1 POP PUSH1 0x0 PUSH1 0x64 PUSH1 0x5A PUSH1 0x2 PUSH1 0x0 DUP7 DUP2 MSTORE PUSH1 0x20 ADD SWAP1 DUP2 MSTORE PUSH1 0x20 ADD PUSH1 0x0 KECCAK256 PUSH1 0x5 ADD SLOAD PUSH2 0xC23 SWAP2 SWAP1 PUSH2 0x23E3 JUMP JUMPDEST PUSH2 0xC2D SWAP2 SWAP1 PUSH2 0x23B2 JUMP JUMPDEST SWAP1 POP PUSH1 0x0 DUP1 SLOAD SWAP1 PUSH2 0x100 EXP SWAP1 DIV PUSH20 0xFFFFFFFFFFFFFFFFFFFFFFFFFFFFFFFFFFFFFFFF AND PUSH20 0xFFFFFFFFFFFFFFFFFFFFFFFFFFFFFFFFFFFFFFFF AND PUSH2 0x8FC DUP4 SWAP1 DUP2 ISZERO MUL SWAP1 PUSH1 0x40 MLOAD PUSH1 0x0 PUSH1 0x40 MLOAD DUP1 DUP4 SUB DUP2 DUP6 DUP9 DUP9 CALL SWAP4 POP POP POP POP ISZERO DUP1 ISZERO PUSH2 0xC95 JUMPI RETURNDATASIZE PUSH1 0x0 DUP1 RETURNDATACOPY RETURNDATASIZE PUSH1 0x0 REVERT JUMPDEST POP PUSH1 0x0 DIFFICULTY TIMESTAMP PUSH1 0x2 PUSH1 0x0 DUP8 DUP2 MSTORE PUSH1 0x20 ADD SWAP1 DUP2 MSTORE PUSH1 0x20 ADD PUSH1 0x0 KECCAK256 PUSH1 0x2 ADD DUP1 SLOAD SWAP1 POP PUSH1 0x40 MLOAD PUSH1 0x20 ADD PUSH2 0xCC6 SWAP4 SWAP3 SWAP2 SWAP1 PUSH2 0x1E2D JUMP JUMPDEST PUSH1 0x40 MLOAD PUSH1 0x20 DUP2 DUP4 SUB SUB DUP2 MSTORE SWAP1 PUSH1 0x40 MSTORE DUP1 MLOAD SWAP1 PUSH1 0x20 ADD KECCAK256 PUSH1 0x0 SHR SWAP1 POP PUSH1 0x0 PUSH1 0x2 PUSH1 0x0 DUP7 DUP2 MSTORE PUSH1 0x20 ADD SWAP1 DUP2 MSTORE PUSH1 0x20 ADD PUSH1 0x0 KECCAK256 PUSH1 0x2 ADD DUP1 SLOAD SWAP1 POP DUP3 PUSH2 0xD08 SWAP2 SWAP1 PUSH2 0x25AA JUMP JUMPDEST SWAP1 POP PUSH1 0x0 PUSH1 0x2 PUSH1 0x0 DUP8 DUP2 MSTORE PUSH1 0x20 ADD SWAP1 DUP2 MSTORE PUSH1 0x20 ADD PUSH1 0x0 KECCAK256 PUSH1 0x2 ADD DUP3 DUP2 SLOAD DUP2 LT PUSH2 0xD5A JUMPI PUSH32 0x4E487B7100000000000000000000000000000000000000000000000000000000 PUSH1 0x0 MSTORE PUSH1 0x32 PUSH1 0x4 MSTORE PUSH1 0x24 PUSH1 0x0 REVERT JUMPDEST SWAP1 PUSH1 0x0 MSTORE PUSH1 0x20 PUSH1 0x0 KECCAK256 ADD PUSH1 0x0 SWAP1 SLOAD SWAP1 PUSH2 0x100 EXP SWAP1 DIV PUSH20 0xFFFFFFFFFFFFFFFFFFFFFFFFFFFFFFFFFFFFFFFF AND SWAP1 POP DUP1 PUSH20 0xFFFFFFFFFFFFFFFFFFFFFFFFFFFFFFFFFFFFFFFF AND PUSH2 0x8FC DUP6 SWAP1 DUP2 ISZERO MUL SWAP1 PUSH1 0x40 MLOAD PUSH1 0x0 PUSH1 0x40 MLOAD DUP1 DUP4 SUB DUP2 DUP6 DUP9 DUP9 CALL SWAP4 POP POP POP POP ISZERO DUP1 ISZERO PUSH2 0xDCD JUMPI RETURNDATASIZE PUSH1 0x0 DUP1 RETURNDATACOPY RETURNDATASIZE PUSH1 0x0 REVERT JUMPDEST POP DUP1 PUSH1 0x2 PUSH1 0x0 DUP9 DUP2 MSTORE PUSH1 0x20 ADD SWAP1 DUP2 MSTORE PUSH1 0x20 ADD PUSH1 0x0 KECCAK256 PUSH1 0x7 ADD PUSH1 0x0 PUSH2 0x100 EXP DUP2 SLOAD DUP2 PUSH20 0xFFFFFFFFFFFFFFFFFFFFFFFFFFFFFFFFFFFFFFFF MUL NOT AND SWAP1 DUP4 PUSH20 0xFFFFFFFFFFFFFFFFFFFFFFFFFFFFFFFFFFFFFFFF AND MUL OR SWAP1 SSTORE POP PUSH1 0x3 PUSH1 0x0 DUP3 PUSH20 0xFFFFFFFFFFFFFFFFFFFFFFFFFFFFFFFFFFFFFFFF AND PUSH20 0xFFFFFFFFFFFFFFFFFFFFFFFFFFFFFFFFFFFFFFFF AND DUP2 MSTORE PUSH1 0x20 ADD SWAP1 DUP2 MSTORE PUSH1 0x20 ADD PUSH1 0x0 KECCAK256 PUSH1 0x0 DUP8 DUP2 MSTORE PUSH1 0x20 ADD SWAP1 DUP2 MSTORE PUSH1 0x20 ADD PUSH1 0x0 KECCAK256 PUSH1 0x2 ADD DUP7 SWAP1 DUP1 PUSH1 0x1 DUP2 SLOAD ADD DUP1 DUP3 SSTORE DUP1 SWAP2 POP POP PUSH1 0x1 SWAP1 SUB SWAP1 PUSH1 0x0 MSTORE PUSH1 0x20 PUSH1 0x0 KECCAK256 ADD PUSH1 0x0 SWAP1 SWAP2 SWAP1 SWAP2 SWAP1 SWAP2 POP SSTORE PUSH1 0x0 PUSH1 0x2 PUSH1 0x0 DUP9 DUP2 MSTORE PUSH1 0x20 ADD SWAP1 DUP2 MSTORE PUSH1 0x20 ADD PUSH1 0x0 KECCAK256 PUSH1 0x7 ADD PUSH1 0x14 PUSH2 0x100 EXP DUP2 SLOAD DUP2 PUSH1 0xFF MUL NOT AND SWAP1 DUP4 ISZERO ISZERO MUL OR SWAP1 SSTORE POP PUSH1 0x2 PUSH1 0x0 DUP8 DUP2 MSTORE PUSH1 0x20 ADD SWAP1 DUP2 MSTORE PUSH1 0x20 ADD PUSH1 0x0 KECCAK256 PUSH1 0x7 ADD PUSH1 0x0 SWAP1 SLOAD SWAP1 PUSH2 0x100 EXP SWAP1 DIV PUSH20 0xFFFFFFFFFFFFFFFFFFFFFFFFFFFFFFFFFFFFFFFF AND PUSH20 0xFFFFFFFFFFFFFFFFFFFFFFFFFFFFFFFFFFFFFFFF AND PUSH32 0x293C9F655BCE43BD3C117702B69E833CF33EF35A999224ABE5289CE386F90119 DUP8 PUSH1 0x2 PUSH1 0x0 DUP11 DUP2 MSTORE PUSH1 0x20 ADD SWAP1 DUP2 MSTORE PUSH1 0x20 ADD PUSH1 0x0 KECCAK256 PUSH1 0x0 ADD PUSH1 0x2 PUSH1 0x0 DUP12 DUP2 MSTORE PUSH1 0x20 ADD SWAP1 DUP2 MSTORE PUSH1 0x20 ADD PUSH1 0x0 KECCAK256 PUSH1 0x4 ADD SLOAD PUSH1 0x2 PUSH1 0x0 DUP13 DUP2 MSTORE PUSH1 0x20 ADD SWAP1 DUP2 MSTORE PUSH1 0x20 ADD PUSH1 0x0 KECCAK256 PUSH1 0x5 ADD SLOAD PUSH1 0x2 PUSH1 0x0 DUP14 DUP2 MSTORE PUSH1 0x20 ADD SWAP1 DUP2 MSTORE PUSH1 0x20 ADD PUSH1 0x0 KECCAK256 PUSH1 0x2 ADD PUSH1 0x40 MLOAD PUSH2 0xFA6 SWAP6 SWAP5 SWAP4 SWAP3 SWAP2 SWAP1 PUSH2 0x2133 JUMP JUMPDEST PUSH1 0x40 MLOAD DUP1 SWAP2 SUB SWAP1 LOG2 POP POP POP POP POP POP JUMP JUMPDEST PUSH1 0x0 DUP1 SLOAD SWAP1 PUSH2 0x100 EXP SWAP1 DIV PUSH20 0xFFFFFFFFFFFFFFFFFFFFFFFFFFFFFFFFFFFFFFFF AND DUP2 JUMP JUMPDEST PUSH1 0x3 PUSH1 0x20 MSTORE DUP2 PUSH1 0x0 MSTORE PUSH1 0x40 PUSH1 0x0 KECCAK256 PUSH1 0x20 MSTORE DUP1 PUSH1 0x0 MSTORE PUSH1 0x40 PUSH1 0x0 KECCAK256 PUSH1 0x0 SWAP2 POP SWAP2 POP POP DUP1 PUSH1 0x0 ADD PUSH1 0x0 SWAP1 SLOAD SWAP1 PUSH2 0x100 EXP SWAP1 DIV PUSH1 0xFF AND SWAP1 POP DUP2 JUMP JUMPDEST PUSH1 0x0 DUP1 SLOAD SWAP1 PUSH2 0x100 EXP SWAP1 DIV PUSH20 0xFFFFFFFFFFFFFFFFFFFFFFFFFFFFFFFFFFFFFFFF AND PUSH20 0xFFFFFFFFFFFFFFFFFFFFFFFFFFFFFFFFFFFFFFFF AND CALLER PUSH20 0xFFFFFFFFFFFFFFFFFFFFFFFFFFFFFFFFFFFFFFFF AND EQ PUSH2 0x10A0 JUMPI PUSH1 0x40 MLOAD PUSH32 0x8C379A000000000000000000000000000000000000000000000000000000000 DUP2 MSTORE PUSH1 0x4 ADD PUSH2 0x1097 SWAP1 PUSH2 0x1F96 JUMP JUMPDEST PUSH1 0x40 MLOAD DUP1 SWAP2 SUB SWAP1 REVERT JUMPDEST PUSH1 0x1 DUP3 GT PUSH2 0x10E3 JUMPI PUSH1 0x40 MLOAD PUSH32 0x8C379A000000000000000000000000000000000000000000000000000000000 DUP2 MSTORE PUSH1 0x4 ADD PUSH2 0x10DA SWAP1 PUSH2 0x1FF6 JUMP JUMPDEST PUSH1 0x40 MLOAD DUP1 SWAP2 SUB SWAP1 REVERT JUMPDEST PUSH1 0x40 MLOAD DUP1 PUSH2 0x140 ADD PUSH1 0x40 MSTORE DUP1 DUP5 DUP2 MSTORE PUSH1 0x20 ADD TIMESTAMP DUP2 MSTORE PUSH1 0x20 ADD PUSH1 0x0 PUSH8 0xFFFFFFFFFFFFFFFF DUP2 GT ISZERO PUSH2 0x113C JUMPI PUSH32 0x4E487B7100000000000000000000000000000000000000000000000000000000 PUSH1 0x0 MSTORE PUSH1 0x41 PUSH1 0x4 MSTORE PUSH1 0x24 PUSH1 0x0 REVERT JUMPDEST PUSH1 0x40 MLOAD SWAP1 DUP1 DUP3 MSTORE DUP1 PUSH1 0x20 MUL PUSH1 0x20 ADD DUP3 ADD PUSH1 0x40 MSTORE DUP1 ISZERO PUSH2 0x116A JUMPI DUP2 PUSH1 0x20 ADD PUSH1 0x20 DUP3 MUL DUP1 CALLDATASIZE DUP4 CALLDATACOPY DUP1 DUP3 ADD SWAP2 POP POP SWAP1 POP JUMPDEST POP DUP2 MSTORE PUSH1 0x20 ADD DUP4 DUP2 MSTORE PUSH1 0x20 ADD DUP3 DUP2 MSTORE PUSH1 0x20 ADD PUSH1 0x0 DUP2 MSTORE PUSH1 0x20 ADD CALLER PUSH20 0xFFFFFFFFFFFFFFFFFFFFFFFFFFFFFFFFFFFFFFFF AND DUP2 MSTORE PUSH1 0x20 ADD PUSH1 0x0 PUSH20 0xFFFFFFFFFFFFFFFFFFFFFFFFFFFFFFFFFFFFFFFF AND DUP2 MSTORE PUSH1 0x20 ADD PUSH1 0x1 ISZERO ISZERO DUP2 MSTORE PUSH1 0x20 ADD PUSH1 0x1 ISZERO ISZERO DUP2 MSTORE POP PUSH1 0x2 PUSH1 0x0 TIMESTAMP DUP2 MSTORE PUSH1 0x20 ADD SWAP1 DUP2 MSTORE PUSH1 0x20 ADD PUSH1 0x0 KECCAK256 PUSH1 0x0 DUP3 ADD MLOAD DUP2 PUSH1 0x0 ADD SWAP1 DUP1 MLOAD SWAP1 PUSH1 0x20 ADD SWAP1 PUSH2 0x11FB SWAP3 SWAP2 SWAP1 PUSH2 0x15C8 JUMP JUMPDEST POP PUSH1 0x20 DUP3 ADD MLOAD DUP2 PUSH1 0x1 ADD SSTORE PUSH1 0x40 DUP3 ADD MLOAD DUP2 PUSH1 0x2 ADD SWAP1 DUP1 MLOAD SWAP1 PUSH1 0x20 ADD SWAP1 PUSH2 0x1222 SWAP3 SWAP2 SWAP1 PUSH2 0x164E JUMP JUMPDEST POP PUSH1 0x60 DUP3 ADD MLOAD DUP2 PUSH1 0x3 ADD SSTORE PUSH1 0x80 DUP3 ADD MLOAD DUP2 PUSH1 0x4 ADD SSTORE PUSH1 0xA0 DUP3 ADD MLOAD DUP2 PUSH1 0x5 ADD SSTORE PUSH1 0xC0 DUP3 ADD MLOAD DUP2 PUSH1 0x6 ADD PUSH1 0x0 PUSH2 0x100 EXP DUP2 SLOAD DUP2 PUSH20 0xFFFFFFFFFFFFFFFFFFFFFFFFFFFFFFFFFFFFFFFF MUL NOT AND SWAP1 DUP4 PUSH20 0xFFFFFFFFFFFFFFFFFFFFFFFFFFFFFFFFFFFFFFFF AND MUL OR SWAP1 SSTORE POP PUSH1 0xE0 DUP3 ADD MLOAD DUP2 PUSH1 0x7 ADD PUSH1 0x0 PUSH2 0x100 EXP DUP2 SLOAD DUP2 PUSH20 0xFFFFFFFFFFFFFFFFFFFFFFFFFFFFFFFFFFFFFFFF MUL NOT AND SWAP1 DUP4 PUSH20 0xFFFFFFFFFFFFFFFFFFFFFFFFFFFFFFFFFFFFFFFF AND MUL OR SWAP1 SSTORE POP PUSH2 0x100 DUP3 ADD MLOAD DUP2 PUSH1 0x7 ADD PUSH1 0x14 PUSH2 0x100 EXP DUP2 SLOAD DUP2 PUSH1 0xFF MUL NOT AND SWAP1 DUP4 ISZERO ISZERO MUL OR SWAP1 SSTORE POP PUSH2 0x120 DUP3 ADD MLOAD DUP2 PUSH1 0x7 ADD PUSH1 0x15 PUSH2 0x100 EXP DUP2 SLOAD DUP2 PUSH1 0xFF MUL NOT AND SWAP1 DUP4 ISZERO ISZERO MUL OR SWAP1 SSTORE POP SWAP1 POP POP PUSH1 0x1 TIMESTAMP SWAP1 DUP1 PUSH1 0x1 DUP2 SLOAD ADD DUP1 DUP3 SSTORE DUP1 SWAP2 POP POP PUSH1 0x1 SWAP1 SUB SWAP1 PUSH1 0x0 MSTORE PUSH1 0x20 PUSH1 0x0 KECCAK256 ADD PUSH1 0x0 SWAP1 SWAP2 SWAP1 SWAP2 SWAP1 SWAP2 POP SSTORE CALLER PUSH20 0xFFFFFFFFFFFFFFFFFFFFFFFFFFFFFFFFFFFFFFFF AND PUSH32 0xF5D10AE5EEF0F0573EA0C20232AF691435B31E9355592054EAE767892F36F791 TIMESTAMP DUP6 DUP5 PUSH1 0x40 MLOAD PUSH2 0x1387 SWAP4 SWAP3 SWAP2 SWAP1 PUSH2 0x20F5 JUMP JUMPDEST PUSH1 0x40 MLOAD DUP1 SWAP2 SUB SWAP1 LOG2 POP POP POP JUMP JUMPDEST PUSH2 0x139C PUSH2 0x16D8 JUMP JUMPDEST PUSH1 0x3 PUSH1 0x0 CALLER PUSH20 0xFFFFFFFFFFFFFFFFFFFFFFFFFFFFFFFFFFFFFFFF AND PUSH20 0xFFFFFFFFFFFFFFFFFFFFFFFFFFFFFFFFFFFFFFFF AND DUP2 MSTORE PUSH1 0x20 ADD SWAP1 DUP2 MSTORE PUSH1 0x20 ADD PUSH1 0x0 KECCAK256 PUSH1 0x0 DUP4 DUP2 MSTORE PUSH1 0x20 ADD SWAP1 DUP2 MSTORE PUSH1 0x20 ADD PUSH1 0x0 KECCAK256 PUSH1 0x40 MLOAD DUP1 PUSH1 0x60 ADD PUSH1 0x40 MSTORE SWAP1 DUP2 PUSH1 0x0 DUP3 ADD PUSH1 0x0 SWAP1 SLOAD SWAP1 PUSH2 0x100 EXP SWAP1 DIV PUSH1 0xFF AND ISZERO ISZERO ISZERO ISZERO DUP2 MSTORE PUSH1 0x20 ADD PUSH1 0x1 DUP3 ADD DUP1 SLOAD DUP1 PUSH1 0x20 MUL PUSH1 0x20 ADD PUSH1 0x40 MLOAD SWAP1 DUP2 ADD PUSH1 0x40 MSTORE DUP1 SWAP3 SWAP2 SWAP1 DUP2 DUP2 MSTORE PUSH1 0x20 ADD DUP3 DUP1 SLOAD DUP1 ISZERO PUSH2 0x1461 JUMPI PUSH1 0x20 MUL DUP3 ADD SWAP2 SWAP1 PUSH1 0x0 MSTORE PUSH1 0x20 PUSH1 0x0 KECCAK256 SWAP1 JUMPDEST DUP2 SLOAD DUP2 MSTORE PUSH1 0x20 ADD SWAP1 PUSH1 0x1 ADD SWAP1 DUP1 DUP4 GT PUSH2 0x144D JUMPI JUMPDEST POP POP POP POP POP DUP2 MSTORE PUSH1 0x20 ADD PUSH1 0x2 DUP3 ADD DUP1 SLOAD DUP1 PUSH1 0x20 MUL PUSH1 0x20 ADD PUSH1 0x40 MLOAD SWAP1 DUP2 ADD PUSH1 0x40 MSTORE DUP1 SWAP3 SWAP2 SWAP1 DUP2 DUP2 MSTORE PUSH1 0x20 ADD DUP3 DUP1 SLOAD DUP1 ISZERO PUSH2 0x14B9 JUMPI PUSH1 0x20 MUL DUP3 ADD SWAP2 SWAP1 PUSH1 0x0 MSTORE PUSH1 0x20 PUSH1 0x0 KECCAK256 SWAP1 JUMPDEST DUP2 SLOAD DUP2 MSTORE PUSH1 0x20 ADD SWAP1 PUSH1 0x1 ADD SWAP1 DUP1 DUP4 GT PUSH2 0x14A5 JUMPI JUMPDEST POP POP POP POP POP DUP2 MSTORE POP POP SWAP1 POP SWAP2 SWAP1 POP JUMP JUMPDEST PUSH1 0x60 PUSH1 0x1 DUP1 SLOAD DUP1 PUSH1 0x20 MUL PUSH1 0x20 ADD PUSH1 0x40 MLOAD SWAP1 DUP2 ADD PUSH1 0x40 MSTORE DUP1 SWAP3 SWAP2 SWAP1 DUP2 DUP2 MSTORE PUSH1 0x20 ADD DUP3 DUP1 SLOAD DUP1 ISZERO PUSH2 0x1517 JUMPI PUSH1 0x20 MUL DUP3 ADD SWAP2 SWAP1 PUSH1 0x0 MSTORE PUSH1 0x20 PUSH1 0x0 KECCAK256 SWAP1 JUMPDEST DUP2 SLOAD DUP2 MSTORE PUSH1 0x20 ADD SWAP1 PUSH1 0x1 ADD SWAP1 DUP1 DUP4 GT PUSH2 0x1503 JUMPI JUMPDEST POP POP POP POP POP SWAP1 POP SWAP1 JUMP JUMPDEST PUSH1 0x1 DUP2 DUP2 SLOAD DUP2 LT PUSH2 0x1531 JUMPI PUSH1 0x0 DUP1 REVERT JUMPDEST SWAP1 PUSH1 0x0 MSTORE PUSH1 0x20 PUSH1 0x0 KECCAK256 ADD PUSH1 0x0 SWAP2 POP SWAP1 POP SLOAD DUP2 JUMP JUMPDEST PUSH1 0x40 MLOAD DUP1 PUSH2 0x140 ADD PUSH1 0x40 MSTORE DUP1 PUSH1 0x60 DUP2 MSTORE PUSH1 0x20 ADD PUSH1 0x0 DUP2 MSTORE PUSH1 0x20 ADD PUSH1 0x60 DUP2 MSTORE PUSH1 0x20 ADD PUSH1 0x0 DUP2 MSTORE PUSH1 0x20 ADD PUSH1 0x0 DUP2 MSTORE PUSH1 0x20 ADD PUSH1 0x0 DUP2 MSTORE PUSH1 0x20 ADD PUSH1 0x0 PUSH20 0xFFFFFFFFFFFFFFFFFFFFFFFFFFFFFFFFFFFFFFFF AND DUP2 MSTORE PUSH1 0x20 ADD PUSH1 0x0 PUSH20 0xFFFFFFFFFFFFFFFFFFFFFFFFFFFFFFFFFFFFFFFF AND DUP2 MSTORE PUSH1 0x20 ADD PUSH1 0x0 ISZERO ISZERO DUP2 MSTORE PUSH1 0x20 ADD PUSH1 0x0 ISZERO ISZERO DUP2 MSTORE POP SWAP1 JUMP JUMPDEST DUP3 DUP1 SLOAD PUSH2 0x15D4 SWAP1 PUSH2 0x2523 JUMP JUMPDEST SWAP1 PUSH1 0x0 MSTORE PUSH1 0x20 PUSH1 0x0 KECCAK256 SWAP1 PUSH1 0x1F ADD PUSH1 0x20 SWAP1 DIV DUP2 ADD SWAP3 DUP3 PUSH2 0x15F6 JUMPI PUSH1 0x0 DUP6 SSTORE PUSH2 0x163D JUMP JUMPDEST DUP3 PUSH1 0x1F LT PUSH2 0x160F JUMPI DUP1 MLOAD PUSH1 0xFF NOT AND DUP4 DUP1 ADD OR DUP6 SSTORE PUSH2 0x163D JUMP JUMPDEST DUP3 DUP1 ADD PUSH1 0x1 ADD DUP6 SSTORE DUP3 ISZERO PUSH2 0x163D JUMPI SWAP2 DUP3 ADD JUMPDEST DUP3 DUP2 GT ISZERO PUSH2 0x163C JUMPI DUP3 MLOAD DUP3 SSTORE SWAP2 PUSH1 0x20 ADD SWAP2 SWAP1 PUSH1 0x1 ADD SWAP1 PUSH2 0x1621 JUMP JUMPDEST JUMPDEST POP SWAP1 POP PUSH2 0x164A SWAP2 SWAP1 PUSH2 0x16FB JUMP JUMPDEST POP SWAP1 JUMP JUMPDEST DUP3 DUP1 SLOAD DUP3 DUP3 SSTORE SWAP1 PUSH1 0x0 MSTORE PUSH1 0x20 PUSH1 0x0 KECCAK256 SWAP1 DUP2 ADD SWAP3 DUP3 ISZERO PUSH2 0x16C7 JUMPI SWAP2 PUSH1 0x20 MUL DUP3 ADD JUMPDEST DUP3 DUP2 GT ISZERO PUSH2 0x16C6 JUMPI DUP3 MLOAD DUP3 PUSH1 0x0 PUSH2 0x100 EXP DUP2 SLOAD DUP2 PUSH20 0xFFFFFFFFFFFFFFFFFFFFFFFFFFFFFFFFFFFFFFFF MUL NOT AND SWAP1 DUP4 PUSH20 0xFFFFFFFFFFFFFFFFFFFFFFFFFFFFFFFFFFFFFFFF AND MUL OR SWAP1 SSTORE POP SWAP2 PUSH1 0x20 ADD SWAP2 SWAP1 PUSH1 0x1 ADD SWAP1 PUSH2 0x166E JUMP JUMPDEST JUMPDEST POP SWAP1 POP PUSH2 0x16D4 SWAP2 SWAP1 PUSH2 0x16FB JUMP JUMPDEST POP SWAP1 JUMP JUMPDEST PUSH1 0x40 MLOAD DUP1 PUSH1 0x60 ADD PUSH1 0x40 MSTORE DUP1 PUSH1 0x0 ISZERO ISZERO DUP2 MSTORE PUSH1 0x20 ADD PUSH1 0x60 DUP2 MSTORE PUSH1 0x20 ADD PUSH1 0x60 DUP2 MSTORE POP SWAP1 JUMP JUMPDEST JUMPDEST DUP1 DUP3 GT ISZERO PUSH2 0x1714 JUMPI PUSH1 0x0 DUP2 PUSH1 0x0 SWAP1 SSTORE POP PUSH1 0x1 ADD PUSH2 0x16FC JUMP JUMPDEST POP SWAP1 JUMP JUMPDEST PUSH1 0x0 PUSH2 0x172B PUSH2 0x1726 DUP5 PUSH2 0x2228 JUMP JUMPDEST PUSH2 0x2203 JUMP JUMPDEST SWAP1 POP DUP3 DUP2 MSTORE PUSH1 0x20 DUP2 ADD DUP5 DUP5 DUP5 ADD GT ISZERO PUSH2 0x1743 JUMPI PUSH1 0x0 DUP1 REVERT JUMPDEST PUSH2 0x174E DUP5 DUP3 DUP6 PUSH2 0x24B7 JUMP JUMPDEST POP SWAP4 SWAP3 POP POP POP JUMP JUMPDEST PUSH1 0x0 DUP2 CALLDATALOAD SWAP1 POP PUSH2 0x1765 DUP2 PUSH2 0x2920 JUMP JUMPDEST SWAP3 SWAP2 POP POP JUMP JUMPDEST PUSH1 0x0 DUP3 PUSH1 0x1F DUP4 ADD SLT PUSH2 0x177C JUMPI PUSH1 0x0 DUP1 REVERT JUMPDEST DUP2 CALLDATALOAD PUSH2 0x178C DUP5 DUP3 PUSH1 0x20 DUP7 ADD PUSH2 0x1718 JUMP JUMPDEST SWAP2 POP POP SWAP3 SWAP2 POP POP JUMP JUMPDEST PUSH1 0x0 DUP2 CALLDATALOAD SWAP1 POP PUSH2 0x17A4 DUP2 PUSH2 0x2937 JUMP JUMPDEST SWAP3 SWAP2 POP POP JUMP JUMPDEST PUSH1 0x0 DUP1 PUSH1 0x40 DUP4 DUP6 SUB SLT ISZERO PUSH2 0x17BD JUMPI PUSH1 0x0 DUP1 REVERT JUMPDEST PUSH1 0x0 PUSH2 0x17CB DUP6 DUP3 DUP7 ADD PUSH2 0x1756 JUMP JUMPDEST SWAP3 POP POP PUSH1 0x20 PUSH2 0x17DC DUP6 DUP3 DUP7 ADD PUSH2 0x1795 JUMP JUMPDEST SWAP2 POP POP SWAP3 POP SWAP3 SWAP1 POP JUMP JUMPDEST PUSH1 0x0 DUP1 PUSH1 0x0 PUSH1 0x60 DUP5 DUP7 SUB SLT ISZERO PUSH2 0x17FB JUMPI PUSH1 0x0 DUP1 REVERT JUMPDEST PUSH1 0x0 DUP5 ADD CALLDATALOAD PUSH8 0xFFFFFFFFFFFFFFFF DUP2 GT ISZERO PUSH2 0x1815 JUMPI PUSH1 0x0 DUP1 REVERT JUMPDEST PUSH2 0x1821 DUP7 DUP3 DUP8 ADD PUSH2 0x176B JUMP JUMPDEST SWAP4 POP POP PUSH1 0x20 PUSH2 0x1832 DUP7 DUP3 DUP8 ADD PUSH2 0x1795 JUMP JUMPDEST SWAP3 POP POP PUSH1 0x40 PUSH2 0x1843 DUP7 DUP3 DUP8 ADD PUSH2 0x1795 JUMP JUMPDEST SWAP2 POP POP SWAP3 POP SWAP3 POP SWAP3 JUMP JUMPDEST PUSH1 0x0 PUSH1 0x20 DUP3 DUP5 SUB SLT ISZERO PUSH2 0x185F JUMPI PUSH1 0x0 DUP1 REVERT JUMPDEST PUSH1 0x0 PUSH2 0x186D DUP5 DUP3 DUP6 ADD PUSH2 0x1795 JUMP JUMPDEST SWAP2 POP POP SWAP3 SWAP2 POP POP JUMP JUMPDEST PUSH1 0x0 PUSH2 0x1882 DUP4 DUP4 PUSH2 0x18B5 JUMP JUMPDEST PUSH1 0x20 DUP4 ADD SWAP1 POP SWAP3 SWAP2 POP POP JUMP JUMPDEST PUSH1 0x0 PUSH2 0x189A DUP4 DUP4 PUSH2 0x1DF8 JUMP JUMPDEST PUSH1 0x20 DUP4 ADD SWAP1 POP SWAP3 SWAP2 POP POP JUMP JUMPDEST PUSH2 0x18AF DUP2 PUSH2 0x246F JUMP JUMPDEST DUP3 MSTORE POP POP JUMP JUMPDEST PUSH2 0x18BE DUP2 PUSH2 0x245D JUMP JUMPDEST DUP3 MSTORE POP POP JUMP JUMPDEST PUSH2 0x18CD DUP2 PUSH2 0x245D JUMP JUMPDEST DUP3 MSTORE POP POP JUMP JUMPDEST PUSH1 0x0 PUSH2 0x18DE DUP3 PUSH2 0x22A3 JUMP JUMPDEST PUSH2 0x18E8 DUP2 DUP6 PUSH2 0x22F6 JUMP JUMPDEST SWAP4 POP PUSH2 0x18F3 DUP4 PUSH2 0x2259 JUMP JUMPDEST DUP1 PUSH1 0x0 JUMPDEST DUP4 DUP2 LT ISZERO PUSH2 0x1924 JUMPI DUP2 MLOAD PUSH2 0x190B DUP9 DUP3 PUSH2 0x1876 JUMP JUMPDEST SWAP8 POP PUSH2 0x1916 DUP4 PUSH2 0x22CF JUMP JUMPDEST SWAP3 POP POP PUSH1 0x1 DUP2 ADD SWAP1 POP PUSH2 0x18F7 JUMP JUMPDEST POP DUP6 SWAP4 POP POP POP POP SWAP3 SWAP2 POP POP JUMP JUMPDEST PUSH1 0x0 PUSH2 0x193C DUP3 PUSH2 0x22AE JUMP JUMPDEST PUSH2 0x1946 DUP2 DUP6 PUSH2 0x2307 JUMP JUMPDEST SWAP4 POP PUSH2 0x1951 DUP4 PUSH2 0x2269 JUMP JUMPDEST DUP1 PUSH1 0x0 JUMPDEST DUP4 DUP2 LT ISZERO PUSH2 0x1989 JUMPI PUSH2 0x1966 DUP3 PUSH2 0x2697 JUMP JUMPDEST PUSH2 0x1970 DUP9 DUP3 PUSH2 0x1876 JUMP JUMPDEST SWAP8 POP PUSH2 0x197B DUP4 PUSH2 0x22DC JUMP JUMPDEST SWAP3 POP POP PUSH1 0x1 DUP2 ADD SWAP1 POP PUSH2 0x1955 JUMP JUMPDEST POP DUP6 SWAP4 POP POP POP POP SWAP3 SWAP2 POP POP JUMP JUMPDEST PUSH1 0x0 PUSH2 0x19A1 DUP3 PUSH2 0x22B9 JUMP JUMPDEST PUSH2 0x19AB DUP2 DUP6 PUSH2 0x2318 JUMP JUMPDEST SWAP4 POP PUSH2 0x19B6 DUP4 PUSH2 0x227E JUMP JUMPDEST DUP1 PUSH1 0x0 JUMPDEST DUP4 DUP2 LT ISZERO PUSH2 0x19E7 JUMPI DUP2 MLOAD PUSH2 0x19CE DUP9 DUP3 PUSH2 0x188E JUMP JUMPDEST SWAP8 POP PUSH2 0x19D9 DUP4 PUSH2 0x22E9 JUMP JUMPDEST SWAP3 POP POP PUSH1 0x1 DUP2 ADD SWAP1 POP PUSH2 0x19BA JUMP JUMPDEST POP DUP6 SWAP4 POP POP POP POP SWAP3 SWAP2 POP POP JUMP JUMPDEST PUSH1 0x0 PUSH2 0x19FF DUP3 PUSH2 0x22B9 JUMP JUMPDEST PUSH2 0x1A09 DUP2 DUP6 PUSH2 0x2329 JUMP JUMPDEST SWAP4 POP PUSH2 0x1A14 DUP4 PUSH2 0x227E JUMP JUMPDEST DUP1 PUSH1 0x0 JUMPDEST DUP4 DUP2 LT ISZERO PUSH2 0x1A45 JUMPI DUP2 MLOAD PUSH2 0x1A2C DUP9 DUP3 PUSH2 0x188E JUMP JUMPDEST SWAP8 POP PUSH2 0x1A37 DUP4 PUSH2 0x22E9 JUMP JUMPDEST SWAP3 POP POP PUSH1 0x1 DUP2 ADD SWAP1 POP PUSH2 0x1A18 JUMP JUMPDEST POP DUP6 SWAP4 POP POP POP POP SWAP3 SWAP2 POP POP JUMP JUMPDEST PUSH2 0x1A5B DUP2 PUSH2 0x2481 JUMP JUMPDEST DUP3 MSTORE POP POP JUMP JUMPDEST PUSH2 0x1A6A DUP2 PUSH2 0x2481 JUMP JUMPDEST DUP3 MSTORE POP POP JUMP JUMPDEST PUSH1 0x0 PUSH2 0x1A7B DUP3 PUSH2 0x22C4 JUMP JUMPDEST PUSH2 0x1A85 DUP2 DUP6 PUSH2 0x233A JUMP JUMPDEST SWAP4 POP PUSH2 0x1A95 DUP2 DUP6 PUSH1 0x20 DUP7 ADD PUSH2 0x24C6 JUMP JUMPDEST PUSH2 0x1A9E DUP2 PUSH2 0x26AA JUMP JUMPDEST DUP5 ADD SWAP2 POP POP SWAP3 SWAP2 POP POP JUMP JUMPDEST PUSH1 0x0 PUSH2 0x1AB4 DUP3 PUSH2 0x22C4 JUMP JUMPDEST PUSH2 0x1ABE DUP2 DUP6 PUSH2 0x234B JUMP JUMPDEST SWAP4 POP PUSH2 0x1ACE DUP2 DUP6 PUSH1 0x20 DUP7 ADD PUSH2 0x24C6 JUMP JUMPDEST PUSH2 0x1AD7 DUP2 PUSH2 0x26AA JUMP JUMPDEST DUP5 ADD SWAP2 POP POP SWAP3 SWAP2 POP POP JUMP JUMPDEST PUSH1 0x0 DUP2 SLOAD PUSH2 0x1AEF DUP2 PUSH2 0x2523 JUMP JUMPDEST PUSH2 0x1AF9 DUP2 DUP7 PUSH2 0x234B JUMP JUMPDEST SWAP5 POP PUSH1 0x1 DUP3 AND PUSH1 0x0 DUP2 EQ PUSH2 0x1B14 JUMPI PUSH1 0x1 DUP2 EQ PUSH2 0x1B26 JUMPI PUSH2 0x1B59 JUMP JUMPDEST PUSH1 0xFF NOT DUP4 AND DUP7 MSTORE PUSH1 0x20 DUP7 ADD SWAP4 POP PUSH2 0x1B59 JUMP JUMPDEST PUSH2 0x1B2F DUP6 PUSH2 0x228E JUMP JUMPDEST PUSH1 0x0 JUMPDEST DUP4 DUP2 LT ISZERO PUSH2 0x1B51 JUMPI DUP2 SLOAD DUP2 DUP10 ADD MSTORE PUSH1 0x1 DUP3 ADD SWAP2 POP PUSH1 0x20 DUP2 ADD SWAP1 POP PUSH2 0x1B32 JUMP JUMPDEST DUP1 DUP9 ADD SWAP6 POP POP POP JUMPDEST POP POP POP SWAP3 SWAP2 POP POP JUMP JUMPDEST PUSH1 0x0 PUSH2 0x1B6F PUSH1 0x21 DUP4 PUSH2 0x234B JUMP JUMPDEST SWAP2 POP PUSH2 0x1B7A DUP3 PUSH2 0x26C8 JUMP JUMPDEST PUSH1 0x40 DUP3 ADD SWAP1 POP SWAP2 SWAP1 POP JUMP JUMPDEST PUSH1 0x0 PUSH2 0x1B92 PUSH1 0x15 DUP4 PUSH2 0x234B JUMP JUMPDEST SWAP2 POP PUSH2 0x1B9D DUP3 PUSH2 0x2717 JUMP JUMPDEST PUSH1 0x20 DUP3 ADD SWAP1 POP SWAP2 SWAP1 POP JUMP JUMPDEST PUSH1 0x0 PUSH2 0x1BB5 PUSH1 0x28 DUP4 PUSH2 0x234B JUMP JUMPDEST SWAP2 POP PUSH2 0x1BC0 DUP3 PUSH2 0x2740 JUMP JUMPDEST PUSH1 0x40 DUP3 ADD SWAP1 POP SWAP2 SWAP1 POP JUMP JUMPDEST PUSH1 0x0 PUSH2 0x1BD8 PUSH1 0x12 DUP4 PUSH2 0x234B JUMP JUMPDEST SWAP2 POP PUSH2 0x1BE3 DUP3 PUSH2 0x278F JUMP JUMPDEST PUSH1 0x20 DUP3 ADD SWAP1 POP SWAP2 SWAP1 POP JUMP JUMPDEST PUSH1 0x0 PUSH2 0x1BFB PUSH1 0x23 DUP4 PUSH2 0x234B JUMP JUMPDEST SWAP2 POP PUSH2 0x1C06 DUP3 PUSH2 0x27B8 JUMP JUMPDEST PUSH1 0x40 DUP3 ADD SWAP1 POP SWAP2 SWAP1 POP JUMP JUMPDEST PUSH1 0x0 PUSH2 0x1C1E PUSH1 0x26 DUP4 PUSH2 0x234B JUMP JUMPDEST SWAP2 POP PUSH2 0x1C29 DUP3 PUSH2 0x2807 JUMP JUMPDEST PUSH1 0x40 DUP3 ADD SWAP1 POP SWAP2 SWAP1 POP JUMP JUMPDEST PUSH1 0x0 PUSH2 0x1C41 PUSH1 0x20 DUP4 PUSH2 0x234B JUMP JUMPDEST SWAP2 POP PUSH2 0x1C4C DUP3 PUSH2 0x2856 JUMP JUMPDEST PUSH1 0x20 DUP3 ADD SWAP1 POP SWAP2 SWAP1 POP JUMP JUMPDEST PUSH1 0x0 PUSH2 0x1C64 PUSH1 0x2B DUP4 PUSH2 0x234B JUMP JUMPDEST SWAP2 POP PUSH2 0x1C6F DUP3 PUSH2 0x287F JUMP JUMPDEST PUSH1 0x40 DUP3 ADD SWAP1 POP SWAP2 SWAP1 POP JUMP JUMPDEST PUSH1 0x0 PUSH2 0x1C87 PUSH1 0xC DUP4 PUSH2 0x234B JUMP JUMPDEST SWAP2 POP PUSH2 0x1C92 DUP3 PUSH2 0x28CE JUMP JUMPDEST PUSH1 0x20 DUP3 ADD SWAP1 POP SWAP2 SWAP1 POP JUMP JUMPDEST PUSH1 0x0 PUSH2 0x1CAA PUSH1 0x20 DUP4 PUSH2 0x234B JUMP JUMPDEST SWAP2 POP PUSH2 0x1CB5 DUP3 PUSH2 0x28F7 JUMP JUMPDEST PUSH1 0x20 DUP3 ADD SWAP1 POP SWAP2 SWAP1 POP JUMP JUMPDEST PUSH1 0x0 PUSH1 0x60 DUP4 ADD PUSH1 0x0 DUP4 ADD MLOAD PUSH2 0x1CD8 PUSH1 0x0 DUP7 ADD DUP3 PUSH2 0x1A52 JUMP JUMPDEST POP PUSH1 0x20 DUP4 ADD MLOAD DUP5 DUP3 SUB PUSH1 0x20 DUP7 ADD MSTORE PUSH2 0x1CF0 DUP3 DUP3 PUSH2 0x1996 JUMP JUMPDEST SWAP2 POP POP PUSH1 0x40 DUP4 ADD MLOAD DUP5 DUP3 SUB PUSH1 0x40 DUP7 ADD MSTORE PUSH2 0x1D0A DUP3 DUP3 PUSH2 0x1996 JUMP JUMPDEST SWAP2 POP POP DUP1 SWAP2 POP POP SWAP3 SWAP2 POP POP JUMP JUMPDEST PUSH1 0x0 PUSH2 0x140 DUP4 ADD PUSH1 0x0 DUP4 ADD MLOAD DUP5 DUP3 SUB PUSH1 0x0 DUP7 ADD MSTORE PUSH2 0x1D35 DUP3 DUP3 PUSH2 0x1A70 JUMP JUMPDEST SWAP2 POP POP PUSH1 0x20 DUP4 ADD MLOAD PUSH2 0x1D4A PUSH1 0x20 DUP7 ADD DUP3 PUSH2 0x1DF8 JUMP JUMPDEST POP PUSH1 0x40 DUP4 ADD MLOAD DUP5 DUP3 SUB PUSH1 0x40 DUP7 ADD MSTORE PUSH2 0x1D62 DUP3 DUP3 PUSH2 0x18D3 JUMP JUMPDEST SWAP2 POP POP PUSH1 0x60 DUP4 ADD MLOAD PUSH2 0x1D77 PUSH1 0x60 DUP7 ADD DUP3 PUSH2 0x1DF8 JUMP JUMPDEST POP PUSH1 0x80 DUP4 ADD MLOAD PUSH2 0x1D8A PUSH1 0x80 DUP7 ADD DUP3 PUSH2 0x1DF8 JUMP JUMPDEST POP PUSH1 0xA0 DUP4 ADD MLOAD PUSH2 0x1D9D PUSH1 0xA0 DUP7 ADD DUP3 PUSH2 0x1DF8 JUMP JUMPDEST POP PUSH1 0xC0 DUP4 ADD MLOAD PUSH2 0x1DB0 PUSH1 0xC0 DUP7 ADD DUP3 PUSH2 0x18B5 JUMP JUMPDEST POP PUSH1 0xE0 DUP4 ADD MLOAD PUSH2 0x1DC3 PUSH1 0xE0 DUP7 ADD DUP3 PUSH2 0x18B5 JUMP JUMPDEST POP PUSH2 0x100 DUP4 ADD MLOAD PUSH2 0x1DD8 PUSH2 0x100 DUP7 ADD DUP3 PUSH2 0x1A52 JUMP JUMPDEST POP PUSH2 0x120 DUP4 ADD MLOAD PUSH2 0x1DED PUSH2 0x120 DUP7 ADD DUP3 PUSH2 0x1A52 JUMP JUMPDEST POP DUP1 SWAP2 POP POP SWAP3 SWAP2 POP POP JUMP JUMPDEST PUSH2 0x1E01 DUP2 PUSH2 0x24AD JUMP JUMPDEST DUP3 MSTORE POP POP JUMP JUMPDEST PUSH2 0x1E10 DUP2 PUSH2 0x24AD JUMP JUMPDEST DUP3 MSTORE POP POP JUMP JUMPDEST PUSH2 0x1E27 PUSH2 0x1E22 DUP3 PUSH2 0x24AD JUMP JUMPDEST PUSH2 0x25A0 JUMP JUMPDEST DUP3 MSTORE POP POP JUMP JUMPDEST PUSH1 0x0 PUSH2 0x1E39 DUP3 DUP7 PUSH2 0x1E16 JUMP JUMPDEST PUSH1 0x20 DUP3 ADD SWAP2 POP PUSH2 0x1E49 DUP3 DUP6 PUSH2 0x1E16 JUMP JUMPDEST PUSH1 0x20 DUP3 ADD SWAP2 POP PUSH2 0x1E59 DUP3 DUP5 PUSH2 0x1E16 JUMP JUMPDEST PUSH1 0x20 DUP3 ADD SWAP2 POP DUP2 SWAP1 POP SWAP5 SWAP4 POP POP POP POP JUMP JUMPDEST PUSH1 0x0 PUSH1 0x20 DUP3 ADD SWAP1 POP PUSH2 0x1E7F PUSH1 0x0 DUP4 ADD DUP5 PUSH2 0x18A6 JUMP JUMPDEST SWAP3 SWAP2 POP POP JUMP JUMPDEST PUSH1 0x0 PUSH1 0x20 DUP3 ADD SWAP1 POP DUP2 DUP2 SUB PUSH1 0x0 DUP4 ADD MSTORE PUSH2 0x1E9F DUP2 DUP5 PUSH2 0x19F4 JUMP JUMPDEST SWAP1 POP SWAP3 SWAP2 POP POP JUMP JUMPDEST PUSH1 0x0 PUSH1 0x20 DUP3 ADD SWAP1 POP PUSH2 0x1EBC PUSH1 0x0 DUP4 ADD DUP5 PUSH2 0x1A61 JUMP JUMPDEST SWAP3 SWAP2 POP POP JUMP JUMPDEST PUSH1 0x0 PUSH2 0x120 DUP3 ADD SWAP1 POP DUP2 DUP2 SUB PUSH1 0x0 DUP4 ADD MSTORE PUSH2 0x1EDD DUP2 DUP13 PUSH2 0x1AA9 JUMP JUMPDEST SWAP1 POP PUSH2 0x1EEC PUSH1 0x20 DUP4 ADD DUP12 PUSH2 0x1E07 JUMP JUMPDEST PUSH2 0x1EF9 PUSH1 0x40 DUP4 ADD DUP11 PUSH2 0x1E07 JUMP JUMPDEST PUSH2 0x1F06 PUSH1 0x60 DUP4 ADD DUP10 PUSH2 0x1E07 JUMP JUMPDEST PUSH2 0x1F13 PUSH1 0x80 DUP4 ADD DUP9 PUSH2 0x1E07 JUMP JUMPDEST PUSH2 0x1F20 PUSH1 0xA0 DUP4 ADD DUP8 PUSH2 0x18C4 JUMP JUMPDEST PUSH2 0x1F2D PUSH1 0xC0 DUP4 ADD DUP7 PUSH2 0x18C4 JUMP JUMPDEST PUSH2 0x1F3A PUSH1 0xE0 DUP4 ADD DUP6 PUSH2 0x1A61 JUMP JUMPDEST PUSH2 0x1F48 PUSH2 0x100 DUP4 ADD DUP5 PUSH2 0x1A61 JUMP JUMPDEST SWAP11 SWAP10 POP POP POP POP POP POP POP POP POP POP JUMP JUMPDEST PUSH1 0x0 PUSH1 0x20 DUP3 ADD SWAP1 POP DUP2 DUP2 SUB PUSH1 0x0 DUP4 ADD MSTORE PUSH2 0x1F6F DUP2 PUSH2 0x1B62 JUMP JUMPDEST SWAP1 POP SWAP2 SWAP1 POP JUMP JUMPDEST PUSH1 0x0 PUSH1 0x20 DUP3 ADD SWAP1 POP DUP2 DUP2 SUB PUSH1 0x0 DUP4 ADD MSTORE PUSH2 0x1F8F DUP2 PUSH2 0x1B85 JUMP JUMPDEST SWAP1 POP SWAP2 SWAP1 POP JUMP JUMPDEST PUSH1 0x0 PUSH1 0x20 DUP3 ADD SWAP1 POP DUP2 DUP2 SUB PUSH1 0x0 DUP4 ADD MSTORE PUSH2 0x1FAF DUP2 PUSH2 0x1BA8 JUMP JUMPDEST SWAP1 POP SWAP2 SWAP1 POP JUMP JUMPDEST PUSH1 0x0 PUSH1 0x20 DUP3 ADD SWAP1 POP DUP2 DUP2 SUB PUSH1 0x0 DUP4 ADD MSTORE PUSH2 0x1FCF DUP2 PUSH2 0x1BCB JUMP JUMPDEST SWAP1 POP SWAP2 SWAP1 POP JUMP JUMPDEST PUSH1 0x0 PUSH1 0x20 DUP3 ADD SWAP1 POP DUP2 DUP2 SUB PUSH1 0x0 DUP4 ADD MSTORE PUSH2 0x1FEF DUP2 PUSH2 0x1BEE JUMP JUMPDEST SWAP1 POP SWAP2 SWAP1 POP JUMP JUMPDEST PUSH1 0x0 PUSH1 0x20 DUP3 ADD SWAP1 POP DUP2 DUP2 SUB PUSH1 0x0 DUP4 ADD MSTORE PUSH2 0x200F DUP2 PUSH2 0x1C11 JUMP JUMPDEST SWAP1 POP SWAP2 SWAP1 POP JUMP JUMPDEST PUSH1 0x0 PUSH1 0x20 DUP3 ADD SWAP1 POP DUP2 DUP2 SUB PUSH1 0x0 DUP4 ADD MSTORE PUSH2 0x202F DUP2 PUSH2 0x1C34 JUMP JUMPDEST SWAP1 POP SWAP2 SWAP1 POP JUMP JUMPDEST PUSH1 0x0 PUSH1 0x20 DUP3 ADD SWAP1 POP DUP2 DUP2 SUB PUSH1 0x0 DUP4 ADD MSTORE PUSH2 0x204F DUP2 PUSH2 0x1C57 JUMP JUMPDEST SWAP1 POP SWAP2 SWAP1 POP JUMP JUMPDEST PUSH1 0x0 PUSH1 0x20 DUP3 ADD SWAP1 POP DUP2 DUP2 SUB PUSH1 0x0 DUP4 ADD MSTORE PUSH2 0x206F DUP2 PUSH2 0x1C7A JUMP JUMPDEST SWAP1 POP SWAP2 SWAP1 POP JUMP JUMPDEST PUSH1 0x0 PUSH1 0x20 DUP3 ADD SWAP1 POP DUP2 DUP2 SUB PUSH1 0x0 DUP4 ADD MSTORE PUSH2 0x208F DUP2 PUSH2 0x1C9D JUMP JUMPDEST SWAP1 POP SWAP2 SWAP1 POP JUMP JUMPDEST PUSH1 0x0 PUSH1 0x20 DUP3 ADD SWAP1 POP DUP2 DUP2 SUB PUSH1 0x0 DUP4 ADD MSTORE PUSH2 0x20B0 DUP2 DUP5 PUSH2 0x1CC0 JUMP JUMPDEST SWAP1 POP SWAP3 SWAP2 POP POP JUMP JUMPDEST PUSH1 0x0 PUSH1 0x20 DUP3 ADD SWAP1 POP DUP2 DUP2 SUB PUSH1 0x0 DUP4 ADD MSTORE PUSH2 0x20D2 DUP2 DUP5 PUSH2 0x1D17 JUMP JUMPDEST SWAP1 POP SWAP3 SWAP2 POP POP JUMP JUMPDEST PUSH1 0x0 PUSH1 0x20 DUP3 ADD SWAP1 POP PUSH2 0x20EF PUSH1 0x0 DUP4 ADD DUP5 PUSH2 0x1E07 JUMP JUMPDEST SWAP3 SWAP2 POP POP JUMP JUMPDEST PUSH1 0x0 PUSH1 0x60 DUP3 ADD SWAP1 POP PUSH2 0x210A PUSH1 0x0 DUP4 ADD DUP7 PUSH2 0x1E07 JUMP JUMPDEST DUP2 DUP2 SUB PUSH1 0x20 DUP4 ADD MSTORE PUSH2 0x211C DUP2 DUP6 PUSH2 0x1AA9 JUMP JUMPDEST SWAP1 POP PUSH2 0x212B PUSH1 0x40 DUP4 ADD DUP5 PUSH2 0x1E07 JUMP JUMPDEST SWAP5 SWAP4 POP POP POP POP JUMP JUMPDEST PUSH1 0x0 PUSH1 0xA0 DUP3 ADD SWAP1 POP PUSH2 0x2148 PUSH1 0x0 DUP4 ADD DUP9 PUSH2 0x1E07 JUMP JUMPDEST DUP2 DUP2 SUB PUSH1 0x20 DUP4 ADD MSTORE PUSH2 0x215A DUP2 DUP8 PUSH2 0x1AE2 JUMP JUMPDEST SWAP1 POP PUSH2 0x2169 PUSH1 0x40 DUP4 ADD DUP7 PUSH2 0x1E07 JUMP JUMPDEST PUSH2 0x2176 PUSH1 0x60 DUP4 ADD DUP6 PUSH2 0x1E07 JUMP JUMPDEST DUP2 DUP2 SUB PUSH1 0x80 DUP4 ADD MSTORE PUSH2 0x2188 DUP2 DUP5 PUSH2 0x1931 JUMP JUMPDEST SWAP1 POP SWAP7 SWAP6 POP POP POP POP POP POP JUMP JUMPDEST PUSH1 0x0 PUSH1 0xC0 DUP3 ADD SWAP1 POP PUSH2 0x21A9 PUSH1 0x0 DUP4 ADD DUP10 PUSH2 0x1E07 JUMP JUMPDEST DUP2 DUP2 SUB PUSH1 0x20 DUP4 ADD MSTORE PUSH2 0x21BB DUP2 DUP9 PUSH2 0x1AE2 JUMP JUMPDEST SWAP1 POP PUSH2 0x21CA PUSH1 0x40 DUP4 ADD DUP8 PUSH2 0x1E07 JUMP JUMPDEST PUSH2 0x21D7 PUSH1 0x60 DUP4 ADD DUP7 PUSH2 0x1E07 JUMP JUMPDEST PUSH2 0x21E4 PUSH1 0x80 DUP4 ADD DUP6 PUSH2 0x1E07 JUMP JUMPDEST DUP2 DUP2 SUB PUSH1 0xA0 DUP4 ADD MSTORE PUSH2 0x21F6 DUP2 DUP5 PUSH2 0x1931 JUMP JUMPDEST SWAP1 POP SWAP8 SWAP7 POP POP POP POP POP POP POP JUMP JUMPDEST PUSH1 0x0 PUSH2 0x220D PUSH2 0x221E JUMP JUMPDEST SWAP1 POP PUSH2 0x2219 DUP3 DUP3 PUSH2 0x256F JUMP JUMPDEST SWAP2 SWAP1 POP JUMP JUMPDEST PUSH1 0x0 PUSH1 0x40 MLOAD SWAP1 POP SWAP1 JUMP JUMPDEST PUSH1 0x0 PUSH8 0xFFFFFFFFFFFFFFFF DUP3 GT ISZERO PUSH2 0x2243 JUMPI PUSH2 0x2242 PUSH2 0x2668 JUMP JUMPDEST JUMPDEST PUSH2 0x224C DUP3 PUSH2 0x26AA JUMP JUMPDEST SWAP1 POP PUSH1 0x20 DUP2 ADD SWAP1 POP SWAP2 SWAP1 POP JUMP JUMPDEST PUSH1 0x0 DUP2 SWAP1 POP PUSH1 0x20 DUP3 ADD SWAP1 POP SWAP2 SWAP1 POP JUMP JUMPDEST PUSH1 0x0 DUP2 SWAP1 POP DUP2 PUSH1 0x0 MSTORE PUSH1 0x20 PUSH1 0x0 KECCAK256 SWAP1 POP SWAP2 SWAP1 POP JUMP JUMPDEST PUSH1 0x0 DUP2 SWAP1 POP PUSH1 0x20 DUP3 ADD SWAP1 POP SWAP2 SWAP1 POP JUMP JUMPDEST PUSH1 0x0 DUP2 SWAP1 POP DUP2 PUSH1 0x0 MSTORE PUSH1 0x20 PUSH1 0x0 KECCAK256 SWAP1 POP SWAP2 SWAP1 POP JUMP JUMPDEST PUSH1 0x0 DUP2 MLOAD SWAP1 POP SWAP2 SWAP1 POP JUMP JUMPDEST PUSH1 0x0 DUP2 SLOAD SWAP1 POP SWAP2 SWAP1 POP JUMP JUMPDEST PUSH1 0x0 DUP2 MLOAD SWAP1 POP SWAP2 SWAP1 POP JUMP JUMPDEST PUSH1 0x0 DUP2 MLOAD SWAP1 POP SWAP2 SWAP1 POP JUMP JUMPDEST PUSH1 0x0 PUSH1 0x20 DUP3 ADD SWAP1 POP SWAP2 SWAP1 POP JUMP JUMPDEST PUSH1 0x0 PUSH1 0x1 DUP3 ADD SWAP1 POP SWAP2 SWAP1 POP JUMP JUMPDEST PUSH1 0x0 PUSH1 0x20 DUP3 ADD SWAP1 POP SWAP2 SWAP1 POP JUMP JUMPDEST PUSH1 0x0 DUP3 DUP3 MSTORE PUSH1 0x20 DUP3 ADD SWAP1 POP SWAP3 SWAP2 POP POP JUMP JUMPDEST PUSH1 0x0 DUP3 DUP3 MSTORE PUSH1 0x20 DUP3 ADD SWAP1 POP SWAP3 SWAP2 POP POP JUMP JUMPDEST PUSH1 0x0 DUP3 DUP3 MSTORE PUSH1 0x20 DUP3 ADD SWAP1 POP SWAP3 SWAP2 POP POP JUMP JUMPDEST PUSH1 0x0 DUP3 DUP3 MSTORE PUSH1 0x20 DUP3 ADD SWAP1 POP SWAP3 SWAP2 POP POP JUMP JUMPDEST PUSH1 0x0 DUP3 DUP3 MSTORE PUSH1 0x20 DUP3 ADD SWAP1 POP SWAP3 SWAP2 POP POP JUMP JUMPDEST PUSH1 0x0 DUP3 DUP3 MSTORE PUSH1 0x20 DUP3 ADD SWAP1 POP SWAP3 SWAP2 POP POP JUMP JUMPDEST PUSH1 0x0 PUSH2 0x2367 DUP3 PUSH2 0x24AD JUMP JUMPDEST SWAP2 POP PUSH2 0x2372 DUP4 PUSH2 0x24AD JUMP JUMPDEST SWAP3 POP DUP3 PUSH32 0xFFFFFFFFFFFFFFFFFFFFFFFFFFFFFFFFFFFFFFFFFFFFFFFFFFFFFFFFFFFFFFFF SUB DUP3 GT ISZERO PUSH2 0x23A7 JUMPI PUSH2 0x23A6 PUSH2 0x25DB JUMP JUMPDEST JUMPDEST DUP3 DUP3 ADD SWAP1 POP SWAP3 SWAP2 POP POP JUMP JUMPDEST PUSH1 0x0 PUSH2 0x23BD DUP3 PUSH2 0x24AD JUMP JUMPDEST SWAP2 POP PUSH2 0x23C8 DUP4 PUSH2 0x24AD JUMP JUMPDEST SWAP3 POP DUP3 PUSH2 0x23D8 JUMPI PUSH2 0x23D7 PUSH2 0x260A JUMP JUMPDEST JUMPDEST DUP3 DUP3 DIV SWAP1 POP SWAP3 SWAP2 POP POP JUMP JUMPDEST PUSH1 0x0 PUSH2 0x23EE DUP3 PUSH2 0x24AD JUMP JUMPDEST SWAP2 POP PUSH2 0x23F9 DUP4 PUSH2 0x24AD JUMP JUMPDEST SWAP3 POP DUP2 PUSH32 0xFFFFFFFFFFFFFFFFFFFFFFFFFFFFFFFFFFFFFFFFFFFFFFFFFFFFFFFFFFFFFFFF DIV DUP4 GT DUP3 ISZERO ISZERO AND ISZERO PUSH2 0x2432 JUMPI PUSH2 0x2431 PUSH2 0x25DB JUMP JUMPDEST JUMPDEST DUP3 DUP3 MUL SWAP1 POP SWAP3 SWAP2 POP POP JUMP JUMPDEST PUSH1 0x0 PUSH20 0xFFFFFFFFFFFFFFFFFFFFFFFFFFFFFFFFFFFFFFFF DUP3 AND SWAP1 POP SWAP2 SWAP1 POP JUMP JUMPDEST PUSH1 0x0 PUSH2 0x2468 DUP3 PUSH2 0x248D JUMP JUMPDEST SWAP1 POP SWAP2 SWAP1 POP JUMP JUMPDEST PUSH1 0x0 PUSH2 0x247A DUP3 PUSH2 0x248D JUMP JUMPDEST SWAP1 POP SWAP2 SWAP1 POP JUMP JUMPDEST PUSH1 0x0 DUP2 ISZERO ISZERO SWAP1 POP SWAP2 SWAP1 POP JUMP JUMPDEST PUSH1 0x0 PUSH20 0xFFFFFFFFFFFFFFFFFFFFFFFFFFFFFFFFFFFFFFFF DUP3 AND SWAP1 POP SWAP2 SWAP1 POP JUMP JUMPDEST PUSH1 0x0 DUP2 SWAP1 POP SWAP2 SWAP1 POP JUMP JUMPDEST DUP3 DUP2 DUP4 CALLDATACOPY PUSH1 0x0 DUP4 DUP4 ADD MSTORE POP POP POP JUMP JUMPDEST PUSH1 0x0 JUMPDEST DUP4 DUP2 LT ISZERO PUSH2 0x24E4 JUMPI DUP1 DUP3 ADD MLOAD DUP2 DUP5 ADD MSTORE PUSH1 0x20 DUP2 ADD SWAP1 POP PUSH2 0x24C9 JUMP JUMPDEST DUP4 DUP2 GT ISZERO PUSH2 0x24F3 JUMPI PUSH1 0x0 DUP5 DUP5 ADD MSTORE JUMPDEST POP POP POP POP JUMP JUMPDEST PUSH1 0x0 PUSH2 0x2504 DUP3 PUSH2 0x24AD JUMP JUMPDEST SWAP2 POP PUSH1 0x0 DUP3 EQ ISZERO PUSH2 0x2518 JUMPI PUSH2 0x2517 PUSH2 0x25DB JUMP JUMPDEST JUMPDEST PUSH1 0x1 DUP3 SUB SWAP1 POP SWAP2 SWAP1 POP JUMP JUMPDEST PUSH1 0x0 PUSH1 0x2 DUP3 DIV SWAP1 POP PUSH1 0x1 DUP3 AND DUP1 PUSH2 0x253B JUMPI PUSH1 0x7F DUP3 AND SWAP2 POP JUMPDEST PUSH1 0x20 DUP3 LT DUP2 EQ ISZERO PUSH2 0x254F JUMPI PUSH2 0x254E PUSH2 0x2639 JUMP JUMPDEST JUMPDEST POP SWAP2 SWAP1 POP JUMP JUMPDEST PUSH1 0x0 PUSH2 0x2568 PUSH2 0x2563 DUP4 PUSH2 0x26BB JUMP JUMPDEST PUSH2 0x243D JUMP JUMPDEST SWAP1 POP SWAP2 SWAP1 POP JUMP JUMPDEST PUSH2 0x2578 DUP3 PUSH2 0x26AA JUMP JUMPDEST DUP2 ADD DUP2 DUP2 LT PUSH8 0xFFFFFFFFFFFFFFFF DUP3 GT OR ISZERO PUSH2 0x2597 JUMPI PUSH2 0x2596 PUSH2 0x2668 JUMP JUMPDEST JUMPDEST DUP1 PUSH1 0x40 MSTORE POP POP POP JUMP JUMPDEST PUSH1 0x0 DUP2 SWAP1 POP SWAP2 SWAP1 POP JUMP JUMPDEST PUSH1 0x0 PUSH2 0x25B5 DUP3 PUSH2 0x24AD JUMP JUMPDEST SWAP2 POP PUSH2 0x25C0 DUP4 PUSH2 0x24AD JUMP JUMPDEST SWAP3 POP DUP3 PUSH2 0x25D0 JUMPI PUSH2 0x25CF PUSH2 0x260A JUMP JUMPDEST JUMPDEST DUP3 DUP3 MOD SWAP1 POP SWAP3 SWAP2 POP POP JUMP JUMPDEST PUSH32 0x4E487B7100000000000000000000000000000000000000000000000000000000 PUSH1 0x0 MSTORE PUSH1 0x11 PUSH1 0x4 MSTORE PUSH1 0x24 PUSH1 0x0 REVERT JUMPDEST PUSH32 0x4E487B7100000000000000000000000000000000000000000000000000000000 PUSH1 0x0 MSTORE PUSH1 0x12 PUSH1 0x4 MSTORE PUSH1 0x24 PUSH1 0x0 REVERT JUMPDEST PUSH32 0x4E487B7100000000000000000000000000000000000000000000000000000000 PUSH1 0x0 MSTORE PUSH1 0x22 PUSH1 0x4 MSTORE PUSH1 0x24 PUSH1 0x0 REVERT JUMPDEST PUSH32 0x4E487B7100000000000000000000000000000000000000000000000000000000 PUSH1 0x0 MSTORE PUSH1 0x41 PUSH1 0x4 MSTORE PUSH1 0x24 PUSH1 0x0 REVERT JUMPDEST PUSH1 0x0 PUSH2 0x26A3 DUP3 SLOAD PUSH2 0x2555 JUMP JUMPDEST SWAP1 POP SWAP2 SWAP1 POP JUMP JUMPDEST PUSH1 0x0 PUSH1 0x1F NOT PUSH1 0x1F DUP4 ADD AND SWAP1 POP SWAP2 SWAP1 POP JUMP JUMPDEST PUSH1 0x0 DUP2 PUSH1 0x0 SHR SWAP1 POP SWAP2 SWAP1 POP JUMP JUMPDEST PUSH32 0x506F6F6C20646F65736E6F7420657869737473207769746820676976656E2049 PUSH1 0x0 DUP3 ADD MSTORE PUSH32 0x6400000000000000000000000000000000000000000000000000000000000000 PUSH1 0x20 DUP3 ADD MSTORE POP JUMP JUMPDEST PUSH32 0x506F6F6C206973206E6F742066696C6C65642075700000000000000000000000 PUSH1 0x0 DUP3 ADD MSTORE POP JUMP JUMPDEST PUSH32 0x4F6E6C79206F776E65722063616E206372656174652061206E6577206C6F7474 PUSH1 0x0 DUP3 ADD MSTORE PUSH32 0x65727920706F6F6C000000000000000000000000000000000000000000000000 PUSH1 0x20 DUP3 ADD MSTORE POP JUMP JUMPDEST PUSH32 0x506F6F6C206973206E6F74206163746976650000000000000000000000000000 PUSH1 0x0 DUP3 ADD MSTORE POP JUMP JUMPDEST PUSH32 0x596F752061726520616C7265616479206A6F696E656420696E20746869732070 PUSH1 0x0 DUP3 ADD MSTORE PUSH32 0x6F6F6C0000000000000000000000000000000000000000000000000000000000 PUSH1 0x20 DUP3 ADD MSTORE POP JUMP JUMPDEST PUSH32 0x417661696C61626C6520736C6F7473206D757374206265206772656174657220 PUSH1 0x0 DUP3 ADD MSTORE PUSH32 0x7468616E20310000000000000000000000000000000000000000000000000000 PUSH1 0x20 DUP3 ADD MSTORE POP JUMP JUMPDEST PUSH32 0x4F6E6C7920706F6F6C206F776E65722063616E20647261772077696E6E657273 PUSH1 0x0 DUP3 ADD MSTORE POP JUMP JUMPDEST PUSH32 0x616D6F756E74206D75737420626520657175616C20746F206A6F696E696E6720 PUSH1 0x0 DUP3 ADD MSTORE PUSH32 0x666565206F6620706F6F6C000000000000000000000000000000000000000000 PUSH1 0x20 DUP3 ADD MSTORE POP JUMP JUMPDEST PUSH32 0x506F6F6C2069732066756C6C0000000000000000000000000000000000000000 PUSH1 0x0 DUP3 ADD MSTORE POP JUMP JUMPDEST PUSH32 0x506F6F6C206973206E6F7420616374697665207769746820676976656E204964 PUSH1 0x0 DUP3 ADD MSTORE POP JUMP JUMPDEST PUSH2 0x2929 DUP2 PUSH2 0x245D JUMP JUMPDEST DUP2 EQ PUSH2 0x2934 JUMPI PUSH1 0x0 DUP1 REVERT JUMPDEST POP JUMP JUMPDEST PUSH2 0x2940 DUP2 PUSH2 0x24AD JUMP JUMPDEST DUP2 EQ PUSH2 0x294B JUMPI PUSH1 0x0 DUP1 REVERT JUMPDEST POP JUMP INVALID LOG2 PUSH5 0x6970667358 0x22 SLT KECCAK256 0xD5 SLOAD PUSH8 0x2C7C3712A38B1D42 0x22 OR PUSH1 0x69 0xEF DUP4 SWAP8 0xB1 0xC3 0xBC MUL 0xD7 CODESIZE 0xF6 0x4F SWAP10 PUSH14 0x123BD29F64736F6C634300080300 CALLER "
        },
        "methodIdentifiers": {
          "createLotteryPool(string,uint256,uint256)": "a8a07586",
          "createdPools(uint256)": "d2627383",
          "drawWinner(uint256)": "60b2a56a",
          "getAllcreatedPools()": "d1ff907b",
          "getLotteryPoolById(uint256)": "4445f30c",
          "getLotteryPoolMemeberById(uint256)": "c61cbd13",
          "joinLotteryPool(uint256)": "4435b17c",
          "lotteryPoolMembers(address,uint256)": "8e2b27e1",
          "lotteryPools(uint256)": "44ed3f58",
          "owner()": "8da5cb5b"
        }
      }
    }
  }
}